:020000040000FA
:06000000EEEF3EF01200DD
:020006001200E6
:0600080099EF3CF012002C
:02000E000000F0
:020010000000EE
:0600180027EF3CF012008E
:02001E000700D9
:100020003E7F00006101000028000000237F0000E7
:10003000650F00001B0000000E000000E80100003A
:1000400004000000C27E000000010000610000000A
:10005000487E0000800000007A000000347E00002E
:10006000CA01000014000000147E0000AA01000074
:04007000200000006C
:0C007400D9CFE6FFE1CFD9FF020EE12654
:10008000DE6ADD6ACAD9CEEC28F0CAEC2AF056DA6C
:10009000E66AE66A7A0EE66E440EE66E12D9E5521C
:1000A000E552E552E552A80EE66E630EE66E050EC9
:1000B000E66EE66A8DEC2AF0E552E552E552E5522D
:1000C0006ADAD388E66AE66AFA0EE66E440EE66EEF
:1000D000F8D8E552E552E552E5520101B551FDE08F
:1000E000B56B58EC37F040EC21F018EC22F0F9EC4D
:1000F0002AF0F3D7D9CFE6FFE1CFD9FF060EE126EC
:10010000DE6ADD6AFD0EDBCFE9FFFE0EDBCFEAFF24
:10011000010ED890E936EA36E806FBE19D0EE926A5
:10012000000EEA22040EEECFDBFF050EEDCFDBFF63
:10013000839ADECF14F0DDCF15F0D890155004E689
:10014000080E145C000E155836E2800EE76E040EA1
:10015000DBCF14F0050EE7501416156A020E14C01A
:10016000DBFF030E15C0DBFF040EDBCF14F0050E22
:10017000DBCF15F0D89014361536040E14C0DBFF13
:10018000050E15C0DBFFD950020FE96EDACFEAFF8A
:10019000800EEE1801E1ED5002E0000E01D0010EDC
:1001A000E8B08384E8A08394838A839ADF2A010ECF
:1001B000C0E3DB2ABED7060EE15C02E2E16AE5524B
:1001C000E16EE552E7CFD9FF1200D9CFE6FFE1CFCC
:1001D000D9FF060EE126DE6ADD6AFD0EDBCFE9FF00
:1001E000FE0EDBCFEAFF010ED890E936EA36E806CC
:1001F000FBE1B10EE926000EEA22040EEECFDBFF92
:10020000050EEDCFDBFF839ADECF14F0DDCF15F0C6
:10021000D890155004E6080E145C000E15582BE219
:10022000010EE76E040EDBCF14F0050EE750141636
:10023000156A020E14C0DBFF030E15C0DBFF040EAF
:10024000DBCF14F0050EDBCF15F0D8901532143249
:10025000040E14C0DBFF050E15C0DBFF020EDB50E1
:10026000E8B08384E8A08394838A839ADF2A010E0E
:10027000CBE3DB2AC9D7060EE15C02E2E16AE55274
:10028000E16EE552E7CFD9FF1200D9CFE6FFE1CF0B
:10029000D9FF8398FD0EDBCFE6FFFE0EDBCFE6FF36
:1002A00029DFE552E552FB0EDBCFE6FFFC0EDBCF8C
:1002B000E6FF8BDFE552E5528388E552E7CFD9FFB1
:1002C0001200D9CFE6FFE1CFD9FF040EE126DE6AA6
:1002D000DD6ADFCF08F0010EDBCF09F084EC39F0E6
:1002E00007C014F008C015F009C016F00AC017F0D6
:1002F000FB0EDBCF18F0FC0EDBCF19F0FD0EDBCFD1
:100300001AF0FE0EDBCF1BF018C00CF019C00DF078
:100310001AC00EF01BC00FF01EEC3AF0010A1DE1EE
:10032000020EDB6A030EDB6A020EDBCF14F0030E53
:10033000DBCF15F0D890155004E6280E145C000EA3
:10034000155806E2020EDB2A030EEEE3DB2AECD799
:10035000DF2A010EBEE3DB2ABCD7040EE15C02E219
:10036000E16AE552E16EE552E7CFD9FF1200D9CF3D
:10037000E6FFE1CFD9FF040EE126DE6ADD6ADFCFBA
:1003800008F0010EDBCF09F084EC39F007C014F05F
:1003900008C015F009C016F00AC017F0FB0EDBCF3D
:1003A00018F0FC0EDBCF19F0FD0EDBCF1AF0FE0EBD
:1003B000DBCF1BF018C00CF019C00DF01AC00EF006
:1003C0001BC00FF01EEC3AF0010A1DE1020EDB6AC1
:1003D000030EDB6A020EDBCF14F0030EDBCF15F049
:1003E000D890155004E6010E145C000E155806E274
:1003F000020EDB2A030EEEE3DB2AECD7DF2A010E26
:10040000BEE3DB2ABCD7040EE15C02E2E16AE552FE
:10041000E16EE552E7CFD9FF1200936A956A836ACD
:10042000926A25EC27F01FEC3CF0E66AE66A7A0E49
:10043000E66E440EE66E45DFE552E552E552E552C2
:10044000570EE66E120EE66EB4EC34F0E552E5524D
:10045000AE0EE66E240EE66E56EC35F0E552E55231
:10046000660EE66EB70EE66E17EC36F0E552E55214
:10047000020EE66EE66AEFEC36F0E552E5520A0E41
:10048000E66EE66A0EEC37F0E552E552320EE66EA5
:10049000E66A2DEC37F0E552E5524CEC37F04CECC7
:1004A0003BF050EC37F0E6EC31F009EF3EF00001A4
:1004B0000A0EC16F360EC26F150EC36F060EC46FE3
:1004C000100EC56F0C0EC66F160EC76FC1C0E6FFCB
:1004D000E66A01EC3CF0E552E552C2C0E6FF010ECF
:1004E000E66E01EC3CF0E552E552C3C0E6FF020EB9
:1004F000E66E01EC3CF0E552E552C4C0E6FF030EA7
:10050000E66E01EC3CF0E552E552C5C0E6FF040E94
:10051000E66E01EC3CF0E552E552C6C0E6FF050E82
:10052000E66E01EC3CF0E552E552C7C0E6FF060E70
:10053000E66E01EC3CF0E552E5521200200EE66E4C
:1005400012EC3CF0E552220825E0B1DFE66A100E1D
:10055000E66E01EC3CF0E552E552E66A110EE66EFD
:1005600001EC3CF0E552E552E66A120EE66E01EC53
:100570003CF0E552E552E66A130EE66E01EC3CF003
:10058000E552E552220EE66E200EE66E01EC3CF0DE
:10059000E552E5521200100EE66E12EC3CF0E55208
:1005A0000001CB6F110EE66E12EC3CF0E55200013B
:1005B000CC6F120EE66E12EC3CF0E5520001CD6FEE
:1005C000130EE66E12EC3CF0E5520001D16F120002
:1005D000E66A12EC3CF0E5520001C16F010EE66ED6
:1005E00012EC3CF0E5520001C26F020EE66E12EC16
:1005F0003CF0E5520001C36F030EE66E12EC3CF0D6
:10060000E5520001C46F040EE66E12EC3CF0E552B8
:100610000001C56F050EE66E12EC3CF0E5520001DC
:10062000C66F060EE66E12EC3CF0E5520001C76F95
:10063000146E156A166A176AE66E15C0E6FF16C0D4
:10064000E6FF17C0E6FFE66AE66A18EC2CF0186EC3
:10065000060EE15E1850C6C014F0156A166A176AD5
:10066000C6C0E6FF15C0E6FF16C0E6FF17C0E6FFEE
:10067000030EE66EE66A18EC2CF0186E060EE15ECC
:100680001850C5C014F0156A166A176AC5C0E6FF8F
:1006900015C0E6FF16C0E6FF17C0E6FF060EE66EC1
:1006A000E66A18EC2CF0186E060EE15E1850C4C015
:1006B00014F0156A166A176AC4C0E6FF15C0E6FF93
:1006C00016C0E6FF17C0E6FF090EE66EE66A18ECF4
:1006D0002CF0186E060EE15E1850C3C014F0156AB7
:1006E000166A176AC3C0E6FF15C0E6FF16C0E6FF2C
:1006F00017C0E6FFE66A010EE66E18EC2CF0186EE5
:10070000060EE15E1850C2C014F0156A166A176A28
:10071000C2C0E6FF15C0E6FF16C0E6FF17C0E6FF41
:10072000030EE66E010EE66E18EC2CF0186E060E47
:10073000E15E1850C1C014F0156A166A176AC1C08C
:10074000E6FF15C0E6FF16C0E6FF17C0E6FF060E7F
:10075000E66E010EE66E18EC2CF0186E060EE15EE9
:1007600018501200D9CFE6FFE1CFD9FFCAEC2AF02A
:100770000001C4511C0816E2020EC65D13E1010E11
:10078000C46FE66E030EE66E01EC3CF0E552E552F6
:100790000001030EC66FE66E050EE66E01EC3CF03E
:1007A000E552E5520001C4511E0815E2040EC65D73
:1007B00012E1010EC46FE66E030EE66E01EC3CF032
:1007C000E552E5520001050EC66FE66EE66E01ECDD
:1007D0003CF0E552E5520001C4511E0816E2060E37
:1007E000C65D13E1010EC46FE66E030EE66E01EC0A
:1007F0003CF0E552E5520001070EC66FE66E050EAD
:10080000E66E01EC3CF0E552E5520001C4511E08D1
:1008100016E2090EC65D13E1010EC46FE66E030E0B
:10082000E66E01EC3CF0E552E55200010A0EC66F9F
:10083000E66E050EE66E01EC3CF0E552E552000175
:10084000C4511E0816E20B0EC65D13E1010EC46F03
:10085000E66E030EE66E01EC3CF0E552E552000157
:100860000C0EC66FE66E050EE66E01EC3CF0E5522E
:10087000E552E66A12EC3CF0E5520001C16F010E50
:10088000E66E12EC3CF0E5520001C26F020EE66E1D
:1008900012EC3CF0E5520001C36F030EE66E12EC61
:1008A0003CF0E5520001C46F040EE66E12EC3CF021
:1008B000E5520001C56F050EE66E12EC3CF0E55204
:1008C0000001C66F060EE66E12EC3CF0E552000128
:1008D000C76FD950FD0FE96EFF0EDA20EA6EEE50B9
:1008E000ED1001E087D0C451070A24E0010A1EE0A0
:1008F000030A18E0010A12E0070A0CE0010A06E008
:10090000030A24E1A40EE66E630E17D0A00EE66E75
:10091000630E13D09C0EE66E630E0FD0980EE66E3B
:10092000630E0BD0940EE66E630E07D0900EE66E4B
:10093000630E03D08C0EE66E630EE66EE66AE66A20
:100940003FEC2DF0E552E552E552E5520001C6516B
:100950000C0A42E0070A3CE0010A36E0030A30E0F4
:10096000010A2AE00F0A24E0010A1EE0030A18E047
:10097000010A12E0070A0CE0010A06E0030A3AE164
:10098000880EE66E630E2BD0840EE66E630E27D0C3
:10099000800EE66E630E23D07C0EE66E630E1FD0D3
:1009A000780EE66E630E1BD0740EE66E630E17D0E3
:1009B000700EE66E630E13D06C0EE66E630E0FD0F3
:1009C000680EE66E630E0BD0640EE66E630E07D003
:1009D000600EE66E630E03D05C0EE66E630EE66E8E
:1009E000020EE66E010EE66E3FEC2DF0E552E5528A
:1009F000E552E552D950FD0FE96EFF0EDA20EA6E9E
:100A0000010EEE1801E08BD0ED5001E088D000011E
:100A1000C451070A24E0010A1EE0030A18E0010A93
:100A200012E0070A0CE0010A06E0030A24E1580E6E
:100A3000E66E630E17D0A00EE66E630E13D0540E52
:100A4000E66E630E0FD0500EE66E630E0BD04C0EAA
:100A5000E66E630E07D0480EE66E630E03D0440EBA
:100A6000E66E630EE66EE66AE66A3FEC2DF0E5524E
:100A7000E552E552E5520001C6510C0A42E0070A70
:100A80003CE0010A36E0030A30E0010A2AE00F0ADE
:100A900024E0010A1EE0030A18E0010A12E0070A36
:100AA0000CE0010A06E0030A3AE1880EE66E630EE6
:100AB0002BD0840EE66E630E27D0800EE66E630E9A
:100AC00023D07C0EE66E630E1FD0400EE66E630EE2
:100AD0001BD0740EE66E630E17D0700EE66E630EBA
:100AE00013D06C0EE66E630E0FD0680EE66E630ECA
:100AF0000BD03C0EE66E630E07D0600EE66E630E02
:100B000003D0380EE66E630EE66E020EE66E010E40
:100B1000E66E3FEC2DF0E552E552E552E552D95034
:100B2000FD0FE96EFF0EDA20EA6E020EEE1801E00C
:100B30008BD0ED5001E088D00001C451070A24E0B9
:100B4000010A1EE0030A18E0010A12E0070A0CE09D
:100B5000010A06E0030A24E1A40EE66E630E17D034
:100B6000A00EE66E630E13D09C0EE66E630E0FD0E1
:100B7000980EE66E630E0BD0940EE66E630E07D0F1
:100B8000900EE66E630E03D08C0EE66E630EE66E7C
:100B9000E66AE66A3FEC2DF0E552E552E552E55291
:100BA0000001C6510C0A42E0070A3CE0010A36E0A7
:100BB000030A30E0010A2AE00F0A24E0010A1EE0DD
:100BC000030A18E0010A12E0070A0CE0010A06E035
:100BD000030A3AE1880EE66E630E2BD0840EE66EB1
:100BE000630E27D0800EE66E630E23D07C0EE66E79
:100BF000630E1FD0780EE66E630E1BD0740EE66E89
:100C0000630E17D0700EE66E630E13D06C0EE66E98
:100C1000630E0FD0680EE66E630E0BD0640EE66EA8
:100C2000630E07D0600EE66E630E03D05C0EE66EB8
:100C3000630EE66E020EE66E010EE66E3FEC2DF0E0
:100C4000E552E552E552E552D950FD0FE96EFF0E2F
:100C5000DA20EA6E030EEE1801E087D0ED5001E0D5
:100C600084D00001C451070A24E0010A1EE0030AEF
:100C700018E0010A12E0070A0CE0010A06E0030A84
:100C800024E1340EE66E630E17D0300EE66E630E6E
:100C900013D02C0EE66E630E0FD0280EE66E630E98
:100CA0000BD0240EE66E630E07D0200EE66E630EA8
:100CB00003D01C0EE66E630EE66EE66AE66A3FEC53
:100CC0002DF0E552E552E552E5520001C6510C0AFD
:100CD0003EE0070A38E0010A32E0030A2CE0010A8C
:100CE00026E00F0A20E0010A1EE0030A18E0010ACC
:100CF00012E0070A0CE0010A06E0030A36E1180ECA
:100D0000E66E630E27D0140EE66E630E23D0100E2F
:100D1000E66E630E1FD00C0EE66E630E1BD0080E3F
:100D2000E66E630E17D0040EE66E630E13D0000E4F
:100D3000E66E630E0FD0FC0EE66E620E0BD03C0E1C
:100D4000E66E630E07D0F80EE66E620E03D0F40E68
:100D5000E66E620EE66E020EE66E010EE66E3FEC89
:100D60002DF0E552E552E552E552D950FD0FE96EFE
:100D7000FF0EDA20EA6E040EEE1801E08BD0ED5083
:100D800001E088D00001C451070A24E0010A1EE0F6
:100D9000030A18E0010A12E0070A0CE0010A06E063
:100DA000030A24E1A40EE66E630E17D0A00EE66ED1
:100DB000630E13D09C0EE66E630E0FD0980EE66E97
:100DC000630E0BD0940EE66E630E07D0900EE66EA7
:100DD000630E03D08C0EE66E630EE66EE66AE66A7C
:100DE0003FEC2DF0E552E552E552E5520001C651C7
:100DF0000C0A42E0070A3CE0010A36E0030A30E050
:100E0000010A2AE00F0A24E0010A1EE0030A18E0A2
:100E1000010A12E0070A0CE0010A06E0030A3AE1BF
:100E2000880EE66E630E2BD0840EE66E630E27D01E
:100E3000800EE66E630E23D07C0EE66E630E1FD02E
:100E4000780EE66E630E1BD0740EE66E630E17D03E
:100E5000700EE66E630E13D06C0EE66E630E0FD04E
:100E6000680EE66E630E0BD0640EE66E630E07D05E
:100E7000600EE66E630E03D05C0EE66E630EE66EE9
:100E8000020EE66E010EE66E3FEC2DF0E552E552E5
:100E9000E552E552D950FD0FE96EFF0EDA20EA6EF9
:100EA000050EEE1801E08BD0ED5001E088D0000176
:100EB000C451070A24E0010A1EE0030A18E0010AEF
:100EC00012E0070A0CE0010A06E0030A24E1A40E7E
:100ED000E66E630E17D0A00EE66E630E13D09C0E66
:100EE000E66E630E0FD0980EE66E630E0BD0940E76
:100EF000E66E630E07D0900EE66E630E03D08C0E86
:100F0000E66E630EE66EE66AE66A3FEC2DF0E552A9
:100F1000E552E552E5520001C6510C0A42E0070ACB
:100F20003CE0010A36E0030A30E0010A2AE00F0A39
:100F300024E0010A1EE0030A18E0010A12E0070A91
:100F40000CE0010A06E0030A3AE1880EE66E630E41
:100F50002BD0840EE66E630E27D0800EE66E630EF5
:100F600023D07C0EE66E630E1FD0780EE66E630E05
:100F70001BD0740EE66E630E17D0700EE66E630E15
:100F800013D06C0EE66E630E0FD0680EE66E630E25
:100F90000BD0640EE66E630E07D0600EE66E630E35
:100FA00003D05C0EE66E630EE66E020EE66E010E78
:100FB000E66E3FEC2DF0E552E552E552E552D95090
:100FC000FD0FE96EFF0EDA20EA6E060EEE1801E064
:100FD00087D0ED5001E084D00001C451070A24E01D
:100FE000010A1EE0030A18E0010A12E0070A0CE0F9
:100FF000010A06E0030A24E1F00EE66E620E17D045
:10100000EC0EE66E620E13D0800EE66E630E0FD00D
:10101000E80EE66E620E0BD0E40EE66E620E07D0AE
:10102000E00EE66E620E03D0440EE66E630EE66ED0
:10103000E66AE66A3FEC2DF0E552E552E552E552EC
:101040000001C6510C0A3EE0070A38E0010A32E00E
:10105000030A2CE0010A26E00F0A20E0010A1EE044
:10106000030A18E0010A12E0070A0CE0010A06E090
:10107000030A36E1880EE66E630E27D0DC0EE66EBC
:10108000620E23D0800EE66E630E1FD0D80EE66E81
:10109000620E1BD0D40EE66E620E17D0D00EE66E36
:1010A000620E13D0CC0EE66E620E0FD0680EE66EA6
:1010B000630E0BD0640EE66E630E07D0600EE66E14
:1010C000630E03D05C0EE66E630EE66E020EE66EF5
:1010D000010EE66E3FEC2DF0E552E552E552E55289
:1010E0000001C351170801E2C36B0A0EC35D1CE285
:1010F000CA0EE66E620EE66E040EE66EE66A3FEC1F
:101100002DF0E552E552E552E552C3C014F0156AE0
:10111000166A176AC3C0E6FF15C0E6FF16C0E6FFF1
:1011200017C0E6FF050E0ED0C3C014F0156A166A8C
:10113000176AC3C0E6FF15C0E6FF16C0E6FF17C07A
:10114000E6FF040EE66EE66A18EC2CF0186E060E4A
:10115000E15E1850C80EE66E620EE66E060EE66E92
:10116000E66A3FEC2DF0E552E552E552E5520A0EF3
:101170000001C25D1CE2CA0EE66E620EE66E070E4C
:10118000E66EE66A3FEC2DF0E552E552E552E55297
:10119000C2C014F0156A166A176AC2C0E6FF15C00D
:1011A000E6FF16C0E6FF17C0E6FF080E0ED0C2C06D
:1011B00014F0156A166A176AC2C0E6FF15C0E6FF8A
:1011C00016C0E6FF17C0E6FF070EE66EE66A18ECEB
:1011D0002CF0186E060EE15E1850C80EE66E620E18
:1011E000E66E090EE66EE66A3FEC2DF0E552E5523A
:1011F000E552E5520A0E0001C15D1CE2CA0EE66E20
:10120000620EE66E0A0EE66EE66A3FEC2DF0E552DF
:10121000E552E552E552C1C014F0156A166A176A24
:10122000C1C0E6FF15C0E6FF16C0E6FF17C0E6FF27
:101230000B0E0ED0C1C014F0156A166A176AC1C031
:10124000E6FF15C0E6FF16C0E6FF17C0E6FF0A0E70
:10125000E66EE66A18EC2CF0186E060EE15E185089
:101260000001CD51010A06E0010A11E1C60EE66E49
:10127000620E03D0C40EE66E620EE66E0D0EE66ED2
:10128000E66A3FEC2DF0E552E552E552E552010EDB
:101290000001E21901E1E35108E0E25113E1E351F9
:1012A00011E1C60EE66E620E03D0C40EE66E620E4B
:1012B000E66E0E0EE66EE66A3FEC2DF0E552E55264
:1012C000E552E552010E0001E81901E1E95108E09B
:1012D000E85113E1E95111E1C60EE66E620E03D04A
:1012E000C40EE66E620EE66E0F0EE66EE66A3FEC28
:1012F0002DF0E552E552E552E552010E0001EA19E2
:1013000001E1EB5108E0EA5114E1EB5112E1C10EA9
:10131000E66E620E03D0BE0EE66E620EE66E0E0E36
:10132000E66E010EE66E3FEC2DF0E552E552E55219
:10133000E552C60EE66E620EE66E050EE66E010E14
:10134000E66E3FEC2DF0E552E552E552E5520A0E0D
:101350000001C55D1DE2C60EE66E620EE66E060E6B
:10136000E66E010EE66E3FEC2DF0E552E552E552D9
:10137000E552C5C014F0156A166A176AC5C0E6FFC3
:1013800015C0E6FF16C0E6FF17C0E6FF070E0ED039
:10139000C5C014F0156A166A176AC5C0E6FF15C005
:1013A000E6FF16C0E6FF17C0E6FF060EE66E010E6A
:1013B000E66E18EC2CF0186E060EE15E1850C60EA4
:1013C000E66E620EE66E080EE66E010EE66E3FEC0D
:1013D0002DF0E552E552E552E552140EE66EE66A4E
:1013E000E66AE66A090EE66E010EE66E18EC2CF06F
:1013F000146E060EE15E1450C7C014F0156A166A2A
:10140000176AC7C0E6FF15C0E6FF16C0E6FF17C0A3
:10141000E6FF0B0EE66E010EE66E18EC2CF0186E71
:10142000060EE15E1850E552E7CFD9FF1200AD0E6F
:10143000E66E620EE66EE66AE66A3FEC2DF0E55275
:10144000E552E552E552AA0EE66E620EE66EE66AD7
:10145000010EE66E3FEC2DF0E552E552E552E55205
:101460000A0E0001CB5D1DE2CA0EE66E620EE66E4C
:10147000020EE66E010EE66E3FEC2DF0E552E552EF
:10148000E552E552CBC014F0156A166A176ACBC054
:10149000E6FF15C0E6FF16C0E6FF17C0E6FF030E25
:1014A0000ED0CBC014F0156A166A176ACBC0E6FFDF
:1014B00015C0E6FF16C0E6FF17C0E6FF020EE66E97
:1014C000010EE66E18EC2CF0186E060EE15E185058
:1014D000C80EE66E620EE66E040EE66E010EE66E55
:1014E0003FEC2DF0E552E552E552E5520A0E0001BF
:1014F000CC5D1DE2CA0EE66E620EE66E050EE66E6D
:10150000010EE66E3FEC2DF0E552E552E552E55254
:10151000CCC014F0156A166A176ACCC0E6FF15C075
:10152000E6FF16C0E6FF17C0E6FF060E0ED0CCC0E1
:1015300014F0156A166A176ACCC0E6FF15C0E6FFFC
:1015400016C0E6FF17C0E6FF050EE66E010EE66E5A
:1015500018EC2CF0186E060EE15E1850A60EE66E22
:10156000620EE66E070EE66E010EE66E3FEC2DF0A3
:10157000E552E552E552E5520001CD51010A06E07F
:10158000010A12E1A20EE66E620E03D09E0EE66E16
:10159000620EE66E0A0EE66E010EE66E3FEC2DF070
:1015A000E552E552E552E552990EE66E620EE66EA0
:1015B0000D0EE66E010EE66E3FEC2DF0E552E552A3
:1015C000E552E5521200880EE66E620EE66EE66A9D
:1015D000E66A3FEC2DF0E552E552E552E552AA0EDF
:1015E000E66E620EE66EE66A010EE66E3FEC2DF0E8
:1015F000E552E552E552E55200010A0EDE5D000EAD
:10160000DF591EE2CA0EE66E620EE66E020EE66E4E
:10161000010EE66E3FEC2DF0E552E552E552E55243
:10162000DEC014F0DFC015F0166A176ADEC0E6FFF0
:10163000DFC0E6FF16C0E6FF17C0E6FF030E0FD0BF
:10164000DEC014F0DFC015F0166A176ADEC0E6FFD0
:10165000DFC0E6FF16C0E6FF17C0E6FF020EE66E2B
:10166000010EE66E18EC2CF0186E060EE15E1850B6
:10167000C80EE66E620EE66E040EE66E010EE66EB3
:101680003FEC2DF0E552E552E552E55200010A0E1D
:10169000E05D000EE1591EE2CA0EE66E620EE66ED5
:1016A000050EE66E010EE66E3FEC2DF0E552E552BA
:1016B000E552E552E0C014F0E1C015F0166A176A71
:1016C000E0C0E6FFE1C0E6FF16C0E6FF17C0E6FF98
:1016D000060E0FD0E0C014F0E1C015F0166A176ACC
:1016E000E0C0E6FFE1C0E6FF16C0E6FF17C0E6FF78
:1016F000050EE66E010EE66E18EC2CF0186E060E66
:10170000E15E1850A60EE66E620EE66E070EE66EFD
:10171000010EE66E3FEC2DF0E552E552E552E55242
:10172000010E0001E21901E1E35108E0E25114E188
:10173000E35112E1A20EE66E620E03D09E0EE66E3B
:10174000620EE66E0A0EE66E010EE66E3FEC2DF0BE
:10175000E552E552E552E552990EE66E620EE66EEE
:101760000D0EE66E010EE66E3FEC2DF0E552E552F1
:10177000E552E5521200770EE66E620EE66EE66AFC
:10178000E66A3FEC2DF0E552E552E552E552AA0E2D
:10179000E66E620EE66EE66A010EE66E3FEC2DF036
:1017A000E552E552E552E55200010A0EE45D000EF5
:1017B000E5591EE2CA0EE66E620EE66E020EE66E97
:1017C000010EE66E3FEC2DF0E552E552E552E55292
:1017D000E4C014F0E5C015F0166A176AE4C0E6FF2D
:1017E000E5C0E6FF16C0E6FF17C0E6FF030E0FD008
:1017F000E4C014F0E5C015F0166A176AE4C0E6FF0D
:10180000E5C0E6FF16C0E6FF17C0E6FF020EE66E73
:10181000010EE66E18EC2CF0186E060EE15E185004
:10182000C80EE66E620EE66E040EE66E010EE66E01
:101830003FEC2DF0E552E552E552E55200010A0E6B
:10184000E05D000EE1591EE2CA0EE66E620EE66E23
:10185000050EE66E010EE66E3FEC2DF0E552E55208
:10186000E552E552E6C014F0E7C015F0166A176AB3
:10187000E6C0E6FFE7C0E6FF16C0E6FF17C0E6FFDA
:10188000060E0FD0E6C014F0E7C015F0166A176A0E
:10189000E6C0E6FFE7C0E6FF16C0E6FF17C0E6FFBA
:1018A000050EE66E010EE66E18EC2CF0186E060EB4
:1018B000E15E1850A60EE66E620EE66E070EE66E4C
:1018C000010EE66E3FEC2DF0E552E552E552E55291
:1018D000010E0001E81901E1E95108E0E85114E1C5
:1018E000E95112E1A20EE66E620E03D09E0EE66E84
:1018F000620EE66E0A0EE66E010EE66E3FEC2DF00D
:10190000E552E552E552E552990EE66E620EE66E3C
:101910000D0EE66E010EE66E3FEC2DF0E552E5523F
:10192000E552E5521200DAC0E6FFDBC0E6FFB2EC9A
:1019300003F0E552E5520001C9510B0A01E1BCD1A7
:10194000010A01E169D1030A01E113D1010A01E1B0
:10195000BFD00F0A67E0010A0FE0060A01E002D2D9
:10196000FEEC11F0000901E100D20001D20501E016
:10197000FCD1060EC96F1200D26BCE29146E140E64
:10198000156E0E6E14C009F0FCEC3EF005C0CEF0F2
:10199000000105501E080DE2AA0EE66E620EE66E0C
:1019A000040EE66EE66A3FEC2DF0E552E552E55294
:1019B000E5521EEC12F0000914E00001C329146E78
:1019C000180E156E0E6E14C009F0FCEC3EF005C04A
:1019D000C3F005C0E6FF020EE66E01EC3CF0E552F6
:1019E000E55235EC12F0000910E00001C305C36FA9
:1019F000E850170802E2170EC36FC3C0E6FF020EDD
:101A0000E66E01EC3CF0E552E552FEEC11F0000907
:101A100003E00001070EC96F06EC12F0000901E1B6
:101A2000A4D199D1D26BCE29146E140E156E0E6E00
:101A300014C009F0FCEC3EF005C0CEF000010550EA
:101A40000F080DE2AA0EE66E620EE66E070EE66E57
:101A5000E66A3FEC2DF0E552E552E552E5521EEC08
:101A600012F0000914E00001C229146E3C0E156E3C
:101A70000E6E14C009F0FCEC3EF005C0C2F005C0CB
:101A8000E6FF010EE66E01EC3CF0E552E55235EC66
:101A900012F0000910E00001C205C26FE8503B08D7
:101AA00002E23B0EC26FC2C0E6FF010EE66E01EC21
:101AB0003CF0E552E552FEEC11F0000903E00001B4
:101AC000080EC96F06EC12F0000901E14ED143D1B6
:101AD000D26BCE29146E140E156E0E6E14C009F062
:101AE000FCEC3EF005C0CEF0000105500F080CE202
:101AF000A60EE66E620EE66EE66AE66A3FEC2DF032
:101B0000E552E552E552E5521EEC12F0000910E0F4
:101B10000001C429C46FE850070802E2010EC46F37
:101B2000C4C0E6FF030EE66E01EC3CF0E552E55260
:101B300035EC12F0000910E00001C405C46FE85054
:101B4000070802E2070EC46FC4C0E6FF030EE66E8C
:101B500001EC3CF0E552E552FEEC11F0000903E027
:101B60000001090EC96F06EC12F0000901E1FDD079
:101B7000F2D0D26BCE29146E140E156E0E6E14C0F8
:101B800009F0FCEC3EF005C0CEF0000105500F0856
:101B90000EE2AA0EE66E620EE66E060EE66E010E0E
:101BA000E66E3FEC2DF0E552E552E552E5521EECB3
:101BB00012F0000910E00001C529C56FE8501F08A8
:101BC00002E2010EC56FC5C0E6FF040EE66E01EC31
:101BD0003CF0E552E55235EC12F0000910E000014E
:101BE000C505C56F010EC55D02E21F0EC56FC5C0FC
:101BF000E6FF040EE66E01EC3CF0E552E552FEEC29
:101C000011F0000903E000010A0EC96F06EC12F0A2
:101C1000000901E1AAD09FD0D26BCE29146E140E18
:101C2000156E0E6E14C009F0FCEC3EF005C0CEF04F
:101C3000000105500F080EE2A60EE66E620EE66E7B
:101C4000020EE66E010EE66E3FEC2DF0E552E55217
:101C5000E552E5521EEC12F0000910E00001C62921
:101C6000C66FE8500C0802E2010EC66FC6C0E6FF60
:101C7000050EE66E01EC3CF0E552E55235EC12F053
:101C8000000910E00001C605C66F010EC65D02E244
:101C90000C0EC66FC6C0E6FF050EE66E01EC3CF00A
:101CA000E552E552ABDB000903E000010B0EC96F02
:101CB000ADDB00095AE04FD0D26BCE29146E140E62
:101CC000156E0E6E14C009F0FCEC3EF005C0CEF0AF
:101CD000000105500F080EE2990EE66E620EE66EE8
:101CE000090EE66E010EE66E3FEC2DF0E552E55270
:101CF000E552E552A3DB00090FE00001C729C76FD9
:101D0000E850630801E2C76BC7C0E6FF060EE66E47
:101D100001EC3CF0E552E552A8DB000910E00001BF
:101D2000C705C76FE850630802E2630EC66FC7C0FD
:101D3000E6FF060EE66E01EC3CF0E552E5525EDB96
:101D4000000906E0CAEC2AF00001010ED26FC96B4F
:101D50005DDB00090AE0CAEC2AF00001010ED26F37
:101D6000C96B1200010ED26FC86B12000001C8517E
:101D7000030A01E1BDD0010A66E0030A0EE0010A90
:101D800001E012004BDB000901E107D10001D2059F
:101D900001E003D1010EC86F1200D26B17EC0AF0FC
:101DA0000001CE29146E140E156E0E6E14C009F0CB
:101DB000FCEC3EF005C0CEF0000105500F080EE22D
:101DC000AA0EE66E620EE66E020EE66E010EE66E7C
:101DD0003FEC2DF0E552E552E552E5522FDB0009CC
:101DE00014E00001CB29146E180E156E0E6E14C08F
:101DF00009F0FCEC3EF005C0CBF005C0E6FF100E8C
:101E0000E66E01EC3CF0E552E5522FDB000910E0F4
:101E10000001CB05CB6FE850170802E2170ECB6F1D
:101E2000CBC0E6FF100EE66E01EC3CF0E552E55249
:101E3000F5DA000903E00001020EC86FF7DA0009C5
:101E400001E1ABD0A3D0D26B17EC0AF00001CE2990
:101E5000146E140E156E0E6E14C009F0FCEC3EF0FC
:101E600005C0CEF0000105500F080EE2AA0EE66E86
:101E7000620EE66E050EE66E010EE66E3FEC2DF08C
:101E8000E552E552E552E552D9DA000914E00001C5
:101E9000CC29146E3C0E156E0E6E14C009F0FCECCD
:101EA0003EF005C0CCF005C0E6FF110EE66E01EC79
:101EB0003CF0E552E552D9DA000910E00001CC050A
:101EC000CC6FE8503B0802E23B0ECC6FCCC0E6FF83
:101ED000110EE66E01EC3CF0E552E5529FDA000986
:101EE00003E00001030EC86FA1DA000956E04ED0EE
:101EF000D26B17EC0AF00001CE29146E140E156E89
:101F00000E6E14C009F0FCEC3EF005C0CEF00001EE
:101F100005501E080EE2A60EE66E620EE66E0A0E72
:101F2000E66E010EE66E3FEC2DF0E552E552E5520D
:101F3000E55284DA00090BE00001CD29010BCD6FD9
:101F4000E66E120EE66E01EC3CF0E552E5528DDADB
:101F5000000910E00001CD05CD6FE850010802E254
:101F6000010ECD6FCDC0E6FF120EE66E01EC3CF027
:101F7000E552E55253DA000906E0CAEC2AF0000106
:101F8000C86B010ED26F52DA000907E0CAEC2AF0E2
:101F90000001010ED26FC86B120012000001C8517F
:101FA000030A01E1B9D0010A64E0030A0EE0010A64
:101FB00001E0120033DA000901E1FFD00001D2058F
:101FC00001E0FBD0010EC86F1200D26BE3EC0AF007
:101FD0000001CE29146E140E156E0E6E14C009F099
:101FE000FCEC3EF005C0CEF0000105500F080EE2FB
:101FF000AA0EE66E620EE66E020EE66E010EE66E4A
:102000003FEC2DF0E552E552E552E55217DA0009B2
:1020100014E0010E0001DE25DE6F000EDF21DF6F10
:10202000180E0D6E0E6ADEC008F0DFC009F0C8ECB5
:102030003EF004C0DEF005C0DFF017DA00090EE064
:102040000001010EDE5F000EDF5B170ED880DE554B
:10205000000EDF5503E2170EDE6FDF6BDFD90009DC
:1020600003E00001020EC86FE1D9000901E1A5D02B
:102070009DD0D26BE3EC0AF00001CE29146E140E51
:10208000156E0E6E14C009F0FCEC3EF005C0CEF0EB
:10209000000105500F080EE2AA0EE66E620EE66E13
:1020A000050EE66E010EE66E3FEC2DF0E552E552B0
:1020B000E552E552C3D9000914E0010E0001E02504
:1020C000E06F000EE121E16F3C0E0D6E0E6AE0C084
:1020D00008F0E1C009F0C8EC3EF004C0E0F005C033
:1020E000E1F0C3D900090EE00001010EE05F000E2F
:1020F000E15B3B0ED880E055000EE15503E23B0E5C
:10210000E06FE16B8BD9000903E00001030EC86F9B
:102110008DD9000952E04AD0D26BE3EC0AF00001FD
:10212000CE29146E140E156E0E6E14C009F0FCEC60
:102130003EF005C0CEF0000105501E080EE2A60ECE
:10214000E66E620EE66E0A0EE66E010EE66E3FEC7D
:102150002DF0E552E552E552E55270D9000909E04B
:10216000010E0001E225E26F000EE321E36B010E98
:10217000E2177BD900090EE00001010EE25F000EBC
:10218000E35B010ED880E255000EE35503E2010E39
:10219000E26FE36B43D9000906E0CAEC2AF00001C4
:1021A000C86B010ED26F42D9000907E0CAEC2AF0D1
:1021B0000001010ED26FC86B120012000001C8515D
:1021C000030A01E1B9D0010A64E0030A0EE0010A42
:1021D00001E0120023D9000901E1FFD00001D2057E
:1021E00001E0FBD0010EC86F1200D26BBBEC0BF00C
:1021F0000001CE29146E140E156E0E6E14C009F077
:10220000FCEC3EF005C0CEF0000105500F080EE2D8
:10221000AA0EE66E620EE66E020EE66E010EE66E27
:102220003FEC2DF0E552E552E552E55207D90009A1
:1022300014E0010E0001E425E46F000EE521E56FD6
:10224000180E0D6E0E6AE4C008F0E5C009F0C8EC87
:102250003EF004C0E4F005C0E5F007D900090EE047
:102260000001010EE45F000EE55B170ED880E45517
:10227000000EE55503E2170EE46FE56BCFD80009B9
:1022800003E00001020EC86FD1D8000901E1A5D01A
:102290009DD0D26BBBEC0BF00001CE29146E140E56
:1022A000156E0E6E14C009F0FCEC3EF005C0CEF0C9
:1022B000000105500F080EE2AA0EE66E620EE66EF1
:1022C000050EE66E010EE66E3FEC2DF0E552E5528E
:1022D000E552E552B3D8000914E0010E0001E625ED
:1022E000E66F000EE721E76F3C0E0D6E0E6AE6C04A
:1022F00008F0E7C009F0C8EC3EF004C0E6F005C005
:10230000E7F0B3D800090EE00001010EE65F000E11
:10231000E75B3B0ED880E655000EE75503E23B0E27
:10232000E66FE76B7BD8000903E00001030EC86F7E
:102330007DD8000952E04AD0D26BBBEC0BF0000113
:10234000CE29146E140E156E0E6E14C009F0FCEC3E
:102350003EF005C0CEF0000105501E080EE2A60EAC
:10236000E66E620EE66E0A0EE66E010EE66E3FEC5B
:102370002DF0E552E552E552E55260D8000909E03A
:10238000010E0001E825E86F000EE921E96B010E5E
:10239000E8176BD800090EE00001010EE85F000E9F
:1023A000E95B010ED880E855000EE95503E2010E05
:1023B000E86FE96B33D8000906E0CAEC2AF00001A7
:1023C000C86B010ED26F32D8000907E0CAEC2AF0C0
:1023D0000001010ED26FC86B120012000101010E44
:1023E000691903E16A5101E1010C000C01010A0EB7
:1023F000691903E16A5101E1010C000C0101010EB0
:10240000691903E16A5101E1010C000C01010A0E96
:10241000691903E16A5101E1010C000C0101010E8F
:10242000691903E16A5101E1010C000C01010A0E76
:10243000691903E16A5101E1010C000C0101010E6F
:102440006B1901E16C510FE00A0ED8806B55000E3C
:102450006C550AE26BC114F0156A010E14161418BB
:1024600003E1155001E1010C000C0101010E6D1991
:1024700001E16E510FE00A0ED8806D55000E6E55C9
:102480000AE26DC114F0156A010E1416141803E166
:10249000155001E1010C000C0101010E691903E165
:1024A0006A5101E1010C000C01010A0E691903E1F6
:1024B0006A5101E1010C000C0001CB51C35D0AE13E
:1024C000CC51C25D07E1C15105E1CD0503E1D20563
:1024D00001E1010C000C0001F851230A01E19CD339
:1024E0001D0A01E149D31C0A01E103D3060A01E1F7
:1024F000BAD2390A01E17BD2010A01E16CD2070AA2
:1025000001E15ED23D0A01E14FD2030A01E140D26E
:10251000020A01E131D20E0A01E1EBD1010A01E127
:10252000A9D1320A01E168D1030A01E159D1380A7F
:1025300001E115D1010A01E1D0D03F0A01E18CD0BF
:10254000010A4DE0060A0CE0180A01E07AD346DFE2
:10255000010801E07CD30001D20501E078D33ED12F
:10256000CAEC2AF00001D26B6C0EE66E620EE66ECB
:10257000030EE66EE66A3FEC2DF0E552E552E552B9
:10258000E5526A0EE66E620EE66EE66A010EE66ED1
:102590003FEC2DF0E552E552E552E5525E0EE66E57
:1025A000620EE66E040EE66E010EE66E3FEC2DF056
:1025B000E552E552E552E55211DF000903E0000162
:1025C000190E28D313DF000901E082D237DF00099A
:1025D00001E0C2D04ADF000901E139D376D0CAEC6C
:1025E0002AF00001D26B6A0EE66E620EE66EE66AB3
:1025F000E66A3FEC2DF0E552E552E552E552560E03
:10260000E66E620EE66E040EE66EE66A3FEC2DF0B4
:10261000E552E552E552E552490EE66E620EE66E6F
:10262000040EE66E010EE66E3FEC2DF0E552E5522B
:10263000E552E552D3DE000901E09BD1D7DE000967
:1026400001E046D2FBDE000902E00001C7D00DDF49
:10265000000901E1FCD279D0CAEC2AF00001D26B6A
:10266000560EE66E620EE66E040EE66EE66A3FEC0D
:102670002DF0E552E552E552E5526A0EE66E620E25
:10268000E66EE66A010EE66E3FEC2DF0E552E5528D
:10269000E552E552490EE66E620EE66E040EE66EF7
:1026A000010EE66E3FEC2DF0E552E552E552E552A3
:1026B00095DE000903E000011B0EACD297DE000995
:1026C00001E006D2BBDE000903E000011E0EA2D22B
:1026D000CCDE000901E1BBD279D0CAEC2AF00001BE
:1026E000D26B6A0EE66E620EE66EE66AE66A3FEC52
:1026F0002DF0E552E552E552E5523C0EE66E620ED3
:10270000E66E040EE66EE66A3FEC2DF0E552E55209
:10271000E552E552350EE66E620EE66E040EE66E8A
:10272000010EE66E3FEC2DF0E552E552E552E55222
:1027300055DE000903E000011C0E6CD257DE0009D3
:1027400001E0C6D17BDE000903E000011F0E62D26A
:102750008CDE000901E17BD20001210E5BD2CAECC4
:102760002AF00001D26B3C0EE66E620EE66E040E9D
:10277000E66EE66A3FEC2DF0E552E552E552E55291
:102780006A0EE66E620EE66EE66A010EE66E3FECDB
:102790002DF0E552E552E552E552350EE66E620E39
:1027A000E66E040EE66E010EE66E3FEC2DF0E5528D
:1027B000E552E552E55212DE000901E097D116DE3E
:1027C000000901E085D13ADE000903E00001200E96
:1027D00021D24BDE000901E13AD20001180E1AD2D3
:1027E000CAEC2AF00001010ED26F93EC0CF0FEDD72
:1027F000000901E12CD2F0D1CAEC2AF00001D26B21
:102800002B0EE66E620EE66E050EE66EE66A3FEC95
:102810002DF0E552E552E552E5526A0EE66E620E83
:10282000E66EE66A010EE66E3FEC2DF0E552E552EB
:10283000E552E552210EE66E620EE66E040EE66E7D
:10284000010EE66E3FEC2DF0E552E552E552E55201
:10285000C5DD000903E00001270EDCD1C7DD00095A
:1028600001E036D1EBDD000941E1FFDD000901E1C6
:10287000EED178D0CAEC2AF00001D26B170EE66ECA
:10288000620EE66E040EE66EE66A3FEC2DF0E5524F
:10289000E552E552E5526A0EE66E620EE66EE66AB3
:1028A000E66A3FEC2DF0E552E552E552E5520D0E99
:1028B000E66E620EE66E040EE66E010EE66E3FEC0C
:1028C0002DF0E552E552E552E55288DD000903E0BE
:1028D0000001250E9FD18ADD000901E0F9D0AEDDAF
:1028E000000947E1C2DD000901E1B1D10001290E73
:1028F00091D1CAEC2AF00001D26B170EE66E620E7F
:10290000E66E040EE66EE66A3FEC2DF0E552E55207
:10291000E552E5526A0EE66E620EE66EE66A010E5A
:10292000E66E3FEC2DF0E552E552E552E5520D0E14
:10293000E66E620EE66E040EE66E010EE66E3FEC8B
:102940002DF0E552E552E552E55248DD000903E07D
:102950000001260E5FD14ADD000901E0B9D06EDD2D
:10296000000903E00001280E55D17FDD000901E1D7
:102970006ED100011A0E4ED1CAEC2AF00001010EF0
:10298000D26FB6EC0EF032DD000901E160D124D146
:10299000CAEC2AF00001010ED26FCEEC0FF026DD5A
:1029A000000901E154D118D1CAEC2AF00001010E4E
:1029B000D26FDEEC10F01ADD000901E148D10CD134
:1029C000CAEC2AF00001010ED26F9AD90FDD00097E
:1029D00001E13DD101D1CAEC2AF00001010ED26F14
:1029E00073EC20F003DD000901E131D1F5D0CAEC30
:1029F0002AF00001D26B030EE66E620EE66E040E44
:102A0000E66EE66A3FEC2DF0E552E552E552E552FE
:102A10006A0EE66E620EE66EE66AE66A3FEC2DF03E
:102A2000E552E552E552E552F70EE66E610EE66EAE
:102A3000040EE66E010EE66E3FEC2DF0E552E55217
:102A4000E552E552CBDC000901E0E2D0CFDC000921
:102A50003FE1F4DC000904E108DD000901E1F7D001
:102A60000001240ED7D0CAEC2AF00001D26B030E6D
:102A7000E66E620EE66E040EE66EE66A3FEC2DF040
:102A8000E552E552E552E5526A0EE66E620EE66EDA
:102A9000E66A010EE66E3FEC2DF0E552E552E55296
:102AA000E552F70EE66E610EE66E040EE66E010E5E
:102AB000E66E3FEC2DF0E552E552E552E5528EDC34
:102AC000000903E00001230EA5D090DC000907E017
:102AD000CAEC2AF00001F86B010ED26F1200AEDCD6
:102AE000000904E1C2DC000901E1B1D000011D0EC2
:102AF00091D0CAEC2AF00001D26BF20EE66E610EA4
:102B0000E66E040EE66EE66A3FEC2DF0E552E55205
:102B1000E552E5526A0EE66E620EE66E010EE66E54
:102B2000E66A3FEC2DF0E552E552E552E552EC0E37
:102B3000E66E610EE66E040EE66E010EE66E3FEC8A
:102B40002DF0E552E552E552E55250DC000944E132
:102B500045DC000908E0CAEC2AF00001010ED26F42
:102B6000F86BEA6F4BD06ADC000903E17EDC0009F8
:102B70006EE000013E0E4ED0CAEC2AF00001D26B8E
:102B8000F20EE66E610EE66E040EE66EE66A3FEC4D
:102B90002DF0E552E552E552E5526A0EE66E620E00
:102BA000E66E010EE66EE66E3FEC2DF0E552E55264
:102BB000E552E552EC0EE66E610EE66E040EE66E30
:102BC000010EE66E3FEC2DF0E552E552E552E5527E
:102BD000F6EC11F0000907E0CAEC2AF00001010E42
:102BE000D26FF86B1200EEEC11F0000909E0CAECAC
:102BF0002AF00001010ED26FF86BEA6BEB6B12004A
:102C00001EEC12F0000904E135EC12F000091FE09F
:102C10000001220EF86F1200CAEC2AF00001D26BFC
:102C2000E40EE66E610EE66E050EE66EE66A3FECB9
:102C30002DF0E552E552E552E55201EC3DF038EF5A
:102C40001FF0CAEC2AF00001F86B010ED26F1200DF
:102C50000001CA51050A1BE0010A05E0040A01E06F
:102C60001200040E12D05CEC12F000090AE0000120
:102C7000010ED16FE66E130EE66E01EC3CF0E552EC
:102C8000E5520001D1513BE0050ECA6F1200D26B34
:102C9000F929146E140E156E0E6E14C009F0FCECBA
:102CA0003EF005C0F9F00A0E0001055C02E2CAEC34
:102CB0002AF00001CF2B000ED023C80ED880CF55AC
:102CC000000ED05512E2010ED26FD16BD1C0E6FFDB
:102CD000130EE66E01EC3CF0E552E5520001CF6BBD
:102CE000D06BCAEC2AF00001CA6BF6EC11F00009B7
:102CF00006E0CAEC2AF00001CA6B010ED26F120086
:102D0000120E0001D61901E1D75101E168D2110E6E
:102D1000D61901E1D75101E104D2100ED61901E113
:102D2000D75101E19FD10F0ED61901E1D75101E131
:102D30003BD10E0ED61901E1D75101E1D7D00D0ECE
:102D4000D61901E1D75101E174D00C0ED61901E179
:102D5000D75111E0D65101E0ACD2D75101E0A9D250
:102D60004CEC12F0000901E1ABD20001D20501E008
:102D7000A7D20C0E78D2CAEC2AF00001D26BE00E7A
:102D8000E66E610EE66EE66AE66A3FEC2DF0E5520D
:102D9000E552E552E552C60EE66E620EE66E040E90
:102DA000E66EE66A3FEC2DF0E552E552E552E5525B
:102DB000DA0EE66E610EE66E060EE66EE66A3FEC31
:102DC0002DF0E552E552E552E552CF0EE66E610E6A
:102DD000E66E040EE66E010EE66E3FEC2DF0E55257
:102DE000E552E552E5521EEC12F0000901E0BFD0B9
:102DF00035EC12F0000901E0D0D14CEC12F00009E2
:102E000012E0CAEC2AF00001C35101019A6F9B6BDA
:102E1000C3C0E6FF020EE66E01EC3CF0E552E5525F
:102E20000001DA6B38D254EC12F0000901E148D20B
:102E300038D2CAEC2AF00001D26BCB0EE66E610EDE
:102E4000E66EE66AE66A3FEC2DF0E552E552E552A1
:102E5000E552C60EE66E620EE66E040EE66EE66A99
:102E60003FEC2DF0E552E552E552E552C40EE66E18
:102E7000610EE66E060EE66EE66A3FEC2DF0E55258
:102E8000E552E552E552B90EE66E610EE66E040EAD
:102E9000E66E010EE66E3FEC2DF0E552E552E5528E
:102EA000E5521EEC12F0000901E0BFD035EC12F043
:102EB000000901E0D0D14CEC12F0000911E0CAEC9D
:102EC0002AF0060E0001C35D0101A06FA16BE66E42
:102ED000020EE66E01EC3CF0E552E552010ED9D14E
:102EE00054EC12F0000901E1EBD1DBD1CAEC2AF07D
:102EF0000001D26BB50EE66E610EE66EE66AE66A1A
:102F00003FEC2DF0E552E552E552E552C60EE66E75
:102F1000620EE66E040EE66EE66A3FEC2DF0E552B8
:102F2000E552E552E552AE0EE66E610EE66E060E15
:102F3000E66EE66A3FEC2DF0E552E552E552E552C9
:102F4000A50EE66E610EE66E040EE66E010EE66EEE
:102F50003FEC2DF0E552E552E552E5521EEC12F041
:102F6000000901E0C1D035EC12F0000902E00D0EBD
:102F700079D14CEC12F0000911E0CAEC2AF0070EEE
:102F80000001C35D0101A46FA56BE66E020EE66E43
:102F900001EC3CF0E552E552020E7BD154EC12F00C
:102FA000000901E18DD17DD1CAEC2AF00001D26B7C
:102FB000A10EE66E610EE66EE66AE66A3FEC2DF063
:102FC000E552E552E552E552C60EE66E620EE66E39
:102FD000040EE66EE66A3FEC2DF0E552E552E5524E
:102FE000E5529A0EE66E610EE66E060EE66EE66A33
:102FF0003FEC2DF0E552E552E552E5528F0EE66EBC
:10300000610EE66E040EE66E010EE66E3FEC2DF0EC
:10301000E552E552E552E5521EEC12F0000901E0DE
:10302000C2D035EC12F0000902E00E0E1BD14CECC0
:1030300012F0000911E0CAEC2AF0040E0001C35D91
:103040000101A26FA36BE66E020EE66E01EC3CF08E
:10305000E552E552030E1DD154EC12F0000901E1D6
:103060002FD11FD1CAEC2AF00001D26B8B0EE66E75
:10307000610EE66EE66AE66A3FEC2DF0E552E55237
:10308000E552E552C60EE66E620EE66E040EE66E80
:10309000E66A3FEC2DF0E552E552E552E552830E2B
:1030A000E66E610EE66E060EE66EE66A3FEC2DF009
:1030B000E552E552E552E552780EE66E610EE66E97
:1030C000040EE66E010EE66E3FEC2DF0E552E55281
:1030D000E552E5521EEC12F0000902E0110EC2D0DA
:1030E00035EC12F0000902E00F0EBCD04CEC12F0EF
:1030F000000911E0CAEC2AF00B0E0001C35D0101CA
:103100009C6F9D6BE66E020EE66E01EC3CF0E552A4
:10311000E552040EBED054EC12F0000901E1D0D00B
:10312000C0D0CAEC2AF00001D26B740EE66E610EBC
:10313000E66EE66AE66A3FEC2DF0E552E552E552AE
:10314000E552C60EE66E620EE66E040EE66EE66AA6
:103150003FEC2DF0E552E552E552E5526C0EE66E7D
:10316000610EE66E060EE66EE66A3FEC2DF0E55265
:10317000E552E552E552600EE66E610EE66E040E13
:10318000E66E010EE66E3FEC2DF0E552E552E5529B
:10319000E5521EEC12F0000902E0120E63D035EC8D
:1031A00012F0000902E0100E5DD04CEC12F00009A4
:1031B00011E0CAEC2AF0040E0001C32501019E6F44
:1031C0009F6BE66E020EE66E01EC3CF0E552E552B6
:1031D000050E5FD054EC12F0000972E062D0CAEC28
:1031E0002AF00001D26B5C0EE66E610EE66EE66AB6
:1031F000E66A3FEC2DF0E552E552E552E552C60E87
:10320000E66E620EE66E040EE66EE66A3FEC2DF0A8
:10321000E552E552E552E552560EE66E610EE66E57
:10322000060EE66EE66A3FEC2DF0E552E552E552F9
:10323000E5528F0EE66E610EE66E040EE66E010E2E
:10324000E66E3FEC2DF0E552E552E552E5521EECFC
:1032500012F0000902E00C0E05D035EC12F0000966
:1032600004E0110E0001D66F22D04CEC12F00009E0
:1032700014E0CAEC2AF0040E0001C35D0101A66F40
:10328000A76BE66E020EE66E01EC3CF0E552E552ED
:10329000060E0001DA6FDB6B120054EC12F000092D
:1032A0000FE0CAEC2AF00001010ED26FD66BD76B8B
:1032B0001200CAEC2AF00001010ED26FD66BD76B58
:1032C000120095968396E66AE66AC80EE66E410E8F
:1032D000E66E61EC01F0E552E552E552E552838677
:1032E0009586120001018E6B83B611D0E66AE66AFC
:1032F000800EE66E3F0EE66EB7EC01F0E552E55249
:10330000E552E55283A603D00101010E8E6F120033
:10331000D9CFE6FFE1CFD9FF020EE126010EDB6A2D
:10332000080EF36E010EDBCFF4FFF350F45C1FE2E6
:1033300083B608D0FDD7E846FE0B1406FCE1E81C76
:10334000DF1612D0010EDBCFE6FF070EE552D88064
:10335000E754146E010E145204E0E846FE0B140606
:10336000FCE1DF1283B6FED7010EDB2AD9D7DF508E
:10337000146E020EE15C02E2E16AE552E16E145065
:10338000E552E7CFD9FF12000101010E631903E1F5
:10339000645101E1010C000C0101010E611903E10E
:1033A000625101E1010C000CEFDF000937E0CAECCB
:1033B0002AF0390EE66E610EE66E67EC32F0E552E9
:1033C000E552010EE66E020EE66E01EC3CF0E552AF
:1033D000E552E66A010EE66E01EC3CF0E552E5527C
:1033E000E66AE66A01EC3CF0E552E552010EE66E53
:1033F000030EE66E01EC3CF0E552E552010EE66E7E
:10340000040EE66E01EC3CF0E552E552010EE66E6C
:10341000050EE66E01EC3CF0E552E552BDDF000919
:1034200038E0CAEC2AF01B0EE66E610EE66E67EC21
:1034300032F0E552E552170EE66E020EE66E01EC32
:103440003CF0E552E5523B0EE66E010EE66E01ECF5
:103450003CF0E552E552E66AE66A01EC3CF0E552E2
:10346000E5521F0EE66E030EE66E01EC3CF0E552EF
:10347000E5520C0EE66E040EE66E01EC3CF0E552F1
:10348000E5520C0EE66E050EE66E01EC3CF0E552E0
:10349000E5521200110EE66E610EE66E67EC32F038
:1034A000E552E552060E0001DA1901E1DB5135E083
:1034B000050EDA1901E1DB512CE0040EDA1901E105
:1034C000DB5123E0030EDA1901E1DB511AE0020EB1
:1034D000DA1901E1DB5111E0010EDA1901E1DB51EA
:1034E00008E0DA5122E1DB5120E10B0EE66E610EBD
:1034F00017D0050EE66E610E13D0FF0EE66E600E5D
:103500000FD0F90EE66E600E0BD0F30EE66E600E75
:1035100007D0ED0EE66E600E03D0E70EE66E600E8D
:10352000E66E67EC32F0E552E552E00EE66E600EB4
:10353000E66E67EC32F0E552E552020EE66E12ECF2
:103540003CF0E552146E156A166A176AE66E15C0ED
:10355000E6FF16C0E6FF17C0E6FFFEEC32F0E552CC
:10356000E552E552E552C80EE66E620EE66E67EC75
:1035700032F0E552E552010EE66E12EC3CF0E552F7
:10358000146E156A166A176AE66E15C0E6FF16C055
:10359000E6FF17C0E6FFFEEC32F0E552E552E552D9
:1035A000E552C80EE66E620EE66E67EC32F0E5524A
:1035B000E552E66A12EC3CF0E552146E156A166AA2
:1035C000176AE66E15C0E6FF16C0E6FF17C0E6FFF5
:1035D000FEEC32F0E552E552E552E552DD0EE66EC4
:1035E000600EE66E67EC32F0E552E552D50EE66EFF
:1035F000600EE66E67EC32F0E552E552100EE66EB4
:1036000012EC3CF0E552146E156A166A176AE66E03
:1036100015C0E6FF16C0E6FF17C0E6FFFEEC32F06D
:10362000E552E552E552E552C80EE66E620EE66ED0
:1036300067EC32F0E552E552110EE66E12EC3CF00A
:10364000E552146E156A166A176AE66E15C0E6FF33
:1036500016C0E6FF17C0E6FFFEEC32F0E552E55279
:10366000E552E552C60EE66E600EE66E67EC32F08D
:10367000E552E5520001CD51010A06E0010A0CE1D4
:10368000C10EE66E600E03D09E0EE66E620EE66E12
:1036900067EC32F0E552E552B80EE66E600EE66E6B
:1036A00067EC32F0E552E552040EE66E12EC3CF0A7
:1036B000E552146E156A166A176AE66E15C0E6FFC3
:1036C00016C0E6FF17C0E6FFFEEC32F0E552E55209
:1036D000E552E552B00EE66E600EE66E67EC32F033
:1036E000E552E5520001DA51DB1101E07DD0C45111
:1036F000070A24E0010A1EE0030A18E0010A12E0AA
:10370000070A0CE0010A06E0030A20E1A40EE66EB7
:10371000630E17D0A00EE66E630E13D09C0EE66EFD
:10372000630E0FD0980EE66E630E0BD0940EE66E0D
:10373000630E07D0900EE66E630E03D08C0EE66E1D
:10374000630EE66E67EC32F0E552E5520001C651B9
:103750000C0A42E0070A3CE0010A36E0030A30E0C6
:10376000010A2AE00F0A24E0010A1EE0030A18E019
:10377000010A12E0070A0CE0010A06E0030A34E13C
:10378000A40EE66E600E2BD0980EE66E600E27D06B
:103790008C0EE66E600E23D0800EE66E600E1FD09B
:1037A000740EE66E600E1BD0680EE66E600E17D0CB
:1037B0005C0EE66E600E13D0500EE66E600E0FD0FB
:1037C000440EE66E600E0BD0380EE66E600E07D02B
:1037D0002C0EE66E600E03D0200EE66E600EE66ED6
:1037E00067EC32F0E552E5520001010EDA1901E012
:1037F00080D0DB5101E07DD0C451070A24E0010AEA
:103800001EE0030A18E0010A12E0070A0CE0010AB0
:1038100006E0030A20E1580EE66E630E17D0A00EF4
:10382000E66E630E13D0540EE66E630E0FD0500E8C
:10383000E66E630E0BD04C0EE66E630E07D0480E9C
:10384000E66E630E03D0440EE66E630EE66E67EC22
:1038500032F0E552E5520001C6510C0A42E0070A77
:103860003CE0010A36E0030A30E0010A2AE00F0AD0
:1038700024E0010A1EE0030A18E0010A12E0070A28
:103880000CE0010A06E0030A34E1A40EE66E600EC5
:103890002BD0980EE66E600E27D08C0EE66E600E72
:1038A00023D0800EE66E600E1FD0140EE66E600E02
:1038B0001BD0680EE66E600E17D05C0EE66E600ED2
:1038C00013D0500EE66E600E0FD0440EE66E600E02
:1038D0000BD0080EE66E600E07D02C0EE66E600E62
:1038E00003D0FC0EE66E5F0EE66E67EC32F0E5523A
:1038F000E5520001020EDA1901E080D0DB5101E04F
:103900007DD0C451070A24E0010A1EE0030A18E032
:10391000010A12E0070A0CE0010A06E0030A20E1AE
:10392000A40EE66E630E17D0A00EE66E630E13D0E3
:103930009C0EE66E630E0FD0980EE66E630E0BD0F3
:10394000940EE66E630E07D0900EE66E630E03D003
:103950008C0EE66E630EE66E67EC32F0E552E552D1
:103960000001C6510C0A42E0070A3CE0010A36E0B9
:10397000030A30E0010A2AE00F0A24E0010A1EE0EF
:10398000030A18E0010A12E0070A0CE0010A06E047
:10399000030A34E1A40EE66E600E2BD0980EE66E9C
:1039A000600E27D08C0EE66E600E23D0800EE66E81
:1039B000600E1FD0740EE66E600E1BD0680EE66EB1
:1039C000600E17D05C0EE66E600E13D0500EE66EE1
:1039D000600E0FD0440EE66E600E0BD0380EE66E11
:1039E000600E07D02C0EE66E600E03D0200EE66E41
:1039F000600EE66E67EC32F0E552E5520001030E10
:103A0000DA1901E07CD0DB5101E079D0C451070A1A
:103A100024E0010A1EE0030A18E0010A12E0070A86
:103A20000CE0010A06E0030A20E1340EE66E630EA4
:103A300017D0300EE66E630E13D02C0EE66E630EBA
:103A40000FD0280EE66E630E0BD0240EE66E630ECA
:103A500007D0200EE66E630E03D01C0EE66E630EDA
:103A6000E66E67EC32F0E552E5520001C6510C0AF1
:103A70003EE0070A38E0010A32E0030A2CE0010ABE
:103A800026E00F0A20E0010A1EE0030A18E0010AFE
:103A900012E0070A0CE0010A06E0030A30E1F00E2A
:103AA000E66E5F0E27D0E40EE66E5F0E23D0D80ED2
:103AB000E66E5F0E1FD0CC0EE66E5F0E1BD0C00E02
:103AC000E66E5F0E17D0B40EE66E5F0E13D0A80E32
:103AD000E66E5F0E0FD09C0EE66E5F0E0BD0080EEA
:103AE000E66E600E07D0900EE66E5F0E03D0840E79
:103AF000E66E5F0EE66E67EC32F0E552E5520001CD
:103B0000040EDA1901E080D0DB5101E07DD0C45110
:103B1000070A24E0010A1EE0030A18E0010A12E085
:103B2000070A0CE0010A06E0030A20E1A40EE66E93
:103B3000630E17D0A00EE66E630E13D09C0EE66ED9
:103B4000630E0FD0980EE66E630E0BD0940EE66EE9
:103B5000630E07D0900EE66E630E03D08C0EE66EF9
:103B6000630EE66E67EC32F0E552E5520001C65195
:103B70000C0A42E0070A3CE0010A36E0030A30E0A2
:103B8000010A2AE00F0A24E0010A1EE0030A18E0F5
:103B9000010A12E0070A0CE0010A06E0030A34E118
:103BA000A40EE66E600E2BD0980EE66E600E27D047
:103BB0008C0EE66E600E23D0800EE66E600E1FD077
:103BC000740EE66E600E1BD0680EE66E600E17D0A7
:103BD0005C0EE66E600E13D0500EE66E600E0FD0D7
:103BE000440EE66E600E0BD0380EE66E600E07D007
:103BF0002C0EE66E600E03D0200EE66E600EE66EB2
:103C000067EC32F0E552E5520001050EDA1901E0E9
:103C100080D0DB5101E07DD0C451070A24E0010AC5
:103C20001EE0030A18E0010A12E0070A0CE0010A8C
:103C300006E0030A20E1A40EE66E630E17D0A00E84
:103C4000E66E630E13D09C0EE66E630E0FD0980ED8
:103C5000E66E630E0BD0940EE66E630E07D0900EE8
:103C6000E66E630E03D08C0EE66E630EE66E67ECB6
:103C700032F0E552E5520001C6510C0A42E0070A53
:103C80003CE0010A36E0030A30E0010A2AE00F0AAC
:103C900024E0010A1EE0030A18E0010A12E0070A04
:103CA0000CE0010A06E0030A34E1A40EE66E600EA1
:103CB0002BD0980EE66E600E27D08C0EE66E600E4E
:103CC00023D0800EE66E600E1FD0740EE66E600E7E
:103CD0001BD0680EE66E600E17D05C0EE66E600EAE
:103CE00013D0500EE66E600E0FD0440EE66E600EDE
:103CF0000BD0380EE66E600E07D02C0EE66E600E0E
:103D000003D0200EE66E600EE66E67EC32F0E552F0
:103D1000E5520001060EDA1901E07CD0DB5101E02A
:103D200079D0C451070A24E0010A1EE0030A18E012
:103D3000010A12E0070A0CE0010A06E0030A20E18A
:103D4000F00EE66E620E17D0EC0EE66E620E13D029
:103D5000800EE66E630E0FD0E80EE66E620E0BD09C
:103D6000E40EE66E620E07D0E00EE66E620E03D041
:103D7000440EE66E630EE66E67EC32F0E552E552F5
:103D80000001C6510C0A3EE0070A38E0010A32E0A1
:103D9000030A2CE0010A26E00F0A20E0010A1EE0D7
:103DA000030A18E0010A12E0070A0CE0010A06E023
:103DB000030A30E1A40EE66E600E27D0780EE66EA0
:103DC0005F0E23D08C0EE66E600E1FD06C0EE66E7A
:103DD0005F0E1BD0600EE66E5F0E17D0540EE66EBF
:103DE0005F0E13D0480EE66E5F0E0FD0440EE66EE7
:103DF000600E0BD0380EE66E600E07D02C0EE66E0D
:103E0000600E03D0200EE66E600EE66E67EC32F0B8
:103E1000E552E5523F0EE66E5F0EE66E67EC32F05D
:103E2000E552E5520001C7510101A86FA96BD00E00
:103E3000A827070EA923A8C114F0A9C115F0166A76
:103E4000176AA8C1E6FFA9C1E6FF16C0E6FF17C0C2
:103E5000E6FFFEEC32F0E552E552E552E5523C0E4B
:103E6000E66E5F0EE66E67EC32F0E552E552120048
:103E70000101D3513A0A01E12AD1BA0A01E104D180
:103E8000FF0A01E1E0D0010A01E1BCD0030A53E0DE
:103E9000070A2AE0060A01E012000101CD0501E04F
:103EA00021D1CD6B520E0F01015D01E0A5D01D0E99
:103EB000E66E5F0EE66E67EC32F0E552E552FC0E00
:103EC000E66E5E0EE66E67EC32F0E552E5523C0EB1
:103ED000E66E5F0EE66E67EC32F0E552E552CAEC34
:103EE0002AF001017E0E8CD00101CD0501E0FAD04F
:103EF000CD6B4C0E0F01015D01E07ED01D0EE66E14
:103F00005F0EE66E67EC32F0E552E552DB0EE66ED0
:103F10005E0EE66E67EC32F0E552E5523C0EE66E60
:103F20005F0EE66E67EC32F0E552E552CAEC2AF01D
:103F300001017F0E65D00101CD0501E0D3D0CD6B2D
:103F4000410E0F01015D58E10A0E0203F3500325F3
:103F50000001CB6F0A0E0F010403F3500525000189
:103F6000CC6F1D0EE66E5F0EE66E67EC32F0E5522A
:103F7000E552CC0EE66E5E0EE66E67EC32F0E55270
:103F8000E552CBC014F0156A166A176ACBC0E6FF7B
:103F900015C0E6FF16C0E6FF17C0E6FFFEEC32F0E4
:103FA000E552E552E552E552C80EE66E620EE66E47
:103FB00067EC32F0E552E552CCC014F0156A166A8F
:103FC000176ACCC0E6FF15C0E6FF16C0E6FF17C0B3
:103FD000E6FFFEEC32F0E552E552E552E5523C0ECA
:103FE000E66E5F0EE66E67EC32F0E552E552CAEC23
:103FF0002AF00101800E04D0CAEC2AF001013A0E29
:10400000D36F1200CAEC2AF0C00EE66E5E0EE66EAA
:10401000E66AE66A3FEC2DF0E552E552E552E552DC
:10402000B70EE66E5E0EE66E050EE66E010EE66EED
:104030003FEC2DF0E552E552E552E552F6EC11F079
:10404000000950E03FD0CAEC2AF0AD0EE66E5E0EDD
:10405000E66EE66AE66A3FEC2DF0E552E552E5527F
:10406000E552A30EE66E5E0EE66E050EE66E010EDE
:10407000E66E3FEC2DF0E552E552E552E552F6ECE6
:1040800011F000092FE01ED0940EE66E5E0EE66E73
:10409000E66AE66A3FEC2DF0E552E552E552E5525C
:1040A000B70EE66E5E0EE66E050EE66E010EE66E6D
:1040B0003FEC2DF0E552E552E552E552F6EC11F0F9
:1040C000000910E0CAEC2AF00001F86B1200CAECFB
:1040D0002AF0710EE66E5E0EE66E67EC32F0E55287
:1040E000E5521200120001018E0501E0BCD088ECFF
:1040F00019F00101916F88EC19F00101926F88ECC1
:1041000019F001018F6F88EC19F00101906F88ECB4
:1041100019F00101956F915192258F259025955D9C
:1041200001E09DD08FC193F191C194F10A0E156EFB
:10413000146E0E6E8FC109F0FCEC3EF015C00EF04F
:10414000FCEC3EF00550300F0101966F0A0E146E24
:104150000E6E93C109F0FCEC3EF00550300F0101EA
:10416000976F0A0E156E146E0E6E94C109F0FCEC7A
:104170003EF015C00EF0FCEC3EF00550300F010192
:10418000986F0A0E146E0E6E94C109F0FCEC3EF0AE
:104190000550300F0101996F6A0EE66E5E0EE66EF5
:1041A000E66AE66A3FEC2DF0E552E552E552E5524B
:1041B00096C1E6FF070EE66EE66AEDEC2BF0E552DF
:1041C000E552E55297C1E6FF080EE66EE66AEDECB1
:1041D0002BF0E552E552E552DF0EE66E090EE66E73
:1041E000E66AEDEC2BF0E552E552E552650EE66E1F
:1041F0005E0EE66E0A0EE66EE66A3FEC2DF0E552C4
:10420000E552E552E5525D0EE66E5E0EE66EE66A3A
:10421000010EE66E3FEC2DF0E552E552E552E55217
:1042200098C1E6FF080EE66E010EE66EEDEC2BF08F
:10423000E552E552E55299C1E6FF090EE66E010E20
:10424000E66EEDEC2BF0E552E552E5525B0EE66EC4
:104250005E0EE66E0A0EE66E010EE66E0AD04B0E9C
:10426000E66E5E0E03D03C0EE66E5E0EE66EE66A0D
:10427000E66A3FEC2DF0E552E552E552E5521200B8
:104280000001D35101E11200480EBB1901E1BC51FC
:1042900001E1A4D0470EBB1901E1BC5101E18FD06F
:1042A000460EBB1901E1BC5117E0BB5101E0BDD086
:1042B000BC5101E0BAD0CAEC2AF0460E0001BB6F37
:1042C000BC6B010ED36F580EE66E1B0EE66EEFEC64
:1042D00036F0E552E5521200CAEC2AF0E66A10EC1C
:1042E0003EF0E552F3CFF6F0F4CFF7F06A0EE66E4B
:1042F0005E0EE66EE66AE66A3FEC2DF0E552E552A8
:10430000E552E552F6C014F0F7C015F0166A176AC8
:10431000F6C0E6FFF7C0E6FF16C0E6FF17C0E6FFEF
:10432000070EE66EE66A18EC2CF0186E060EE15EDB
:104330001850DF0EE66E0C0EE66EE66AEDEC2BF022
:10434000E552E552E552650EE66E5E0EE66E0D0E26
:10435000E66EE66A3FEC2DF0E552E552E552E55295
:104360005D0EE66E5E0EE66EE66A010EE66E3FECF0
:104370002DF0E552E552E552E5523C0EE66EE66A56
:10438000E66AE66A070EE66E010EE66E18EC2CF0A1
:10439000146E060EE15E14505B0EE66E5E0EE66E67
:1043A0000A0EE66E010EE66E3FEC2DF0E552E55288
:1043B000E552E5520101B2513AE0470E30D0CAEC65
:1043C0002AF0DAC0E6FFDBC0E6FFB2EC03F0E5520C
:1043D000E5520101B2512BE0480E21D0CAEC2AF07F
:1043E000330EE66E5E0EE66E040EE66EE66A3FEC97
:1043F0002DF0E552E552E552E552280EE66E5E0ECE
:10440000E66E020EE66E010EE66E3FEC2DF0E55212
:10441000E552E552E5520101B25109E0460E0001B4
:10442000BB6FBC6B0101B26B1200CAEC2AF0120028
:104430004F0E0001BD1901E1BE5101E123D3540E1D
:10444000BD1901E1BE5101E1CDD2530EBD1901E10B
:10445000BE5101E17FD2520EBD1901E1BE5101E111
:1044600032D24D0EBD1901E1BE5101E1BDD1190E8F
:10447000BD1901E1BE5101E1AAD14C0EBD1901E106
:10448000BE5101E188D14B0EBD1901E1BE5101E1E0
:1044900004D11F0EBD1901E1BE5101E1ABD01E0ECA
:1044A000BD1901E1BE515EE0180EBD1901E1BE511A
:1044B00013E0BD5101E1BE5101E01200EEEC11F03C
:1044C000010801E02FD30001D50501E02BD3180E20
:1044D000BD6FBE6BD36B1200CAEC2AF01A0EE66EEB
:1044E0005E0EE66E020EE66EE66A3FEC2DF0E552D9
:1044F000E552E552E5526A0EE66E620EE66EE66A37
:10450000010EE66E3FEC2DF0E552E552E552E55224
:104510005E0EE66E620EE66E020EE66E010EE66E50
:104520003FEC2DF0E552E552E552E552EEEC11F08C
:10453000000902E0010E8DD0F6EC11F0000908E050
:10454000CAEC2AF00001BD6BBE6BBB6BBC6B94D098
:104550001EEC12F000094CE135EC12F0000901E10B
:10456000E1D292D0CAEC2AF06A0EE66E620EE66ED6
:10457000E66AE66A3FEC2DF0E552E552E552E55277
:104580000B0EE66E5E0EE66E020EE66EE66A3FEC1F
:104590002DF0E552E552E552E552FD0EE66E5D0E58
:1045A000E66E020EE66E010EE66E3FEC2DF0E55271
:1045B000E552E552E552EEEC11F0000902E0020E80
:1045C00048D0F6EC11F000090AE0CAEC2AF000012C
:1045D000BD6BBE6B010ED56FBB6BBC6B4FD01EECC1
:1045E00012F0000958E135EC12F0000901E19AD20D
:1045F0001F0E92D0CAEC2AF00B0EE66E5E0EE66E2F
:10460000020EE66EE66A3FEC2DF0E552E552E55209
:10461000E5526A0EE66E620EE66EE66A010EE66E20
:104620003FEC2DF0E552E552E552E552FD0EE66E07
:104630005D0EE66E020EE66E010EE66E3FEC2DF0AC
:10464000E552E552E552E552EEEC11F0000909E0C1
:10465000030E0001BF6FC06B4B0EBD6FBE6B9C6B3A
:104660007BD0F6EC11F000090BE0CAEC2AF0000157
:10467000BB6BBC6BBD6BBE6B010ED56FD36F1200F5
:104680001EEC12F0000902E01E0E46D035EC12F0CE
:10469000000901E147D2180E3FD0EC0EE66E5D0E28
:1046A000E66EE66AE66A3FEC2DF0E552E552E55229
:1046B000E552040E00019C5D51E35EDA00096AE0F8
:1046C00000019C6B000EE66EE66A5EDAE552E5528A
:1046D000010808E10001010EBF1904E1C05102E127
:1046E000190E2BD0010EE66EE66A4EDAE552E5525F
:1046F000010814E10001020EBF1910E1C0510EE1E2
:104700000A0EF46FF56BE80EE66E030EE66EEFEC44
:1047100036F0E552E5524D0E00010FD0020EE66E66
:10472000E66A32DAE552E55201080AE10001030EB9
:10473000BF1906E1C05104E1520EBD6FBE6B1200FD
:104740004C0E0001BD6FBE6BE80EE66E030EE66E0A
:10475000EFEC36F0E552E552CAEF2AF0E4D9000951
:1047600001E1E0D1EA0EE66E5D0EE66E9CC0E6FF6A
:10477000010EE66E3FEC2DF0E552E552E552E552B2
:1047800000019C51EA6A8A0FE96E010EEA2289C192
:10479000EFFF9C2B1200DB0EE66E5D0EE66E010E47
:1047A000E66EE66A3FEC2DF0E552E552E552E55241
:1047B0000101B25101E1B6D1CAEC2AF00101B26B9C
:1047C0000001BB6BBC6BBD6BBE6B010E85D1CAEC2F
:1047D0002AF00001010ED56F93EC0CF0F6EC11F00D
:1047E000000901E19FD165D0010ED56FF53530E2AA
:1047F000F4510008000EF5552BE2CAEC2AF0D20E57
:10480000E66E5D0EE66E040EE66EE66A3FEC2DF097
:10481000E552E552E552E552F4C014F0F5C015F04A
:10482000166A176A15AE02D01668176814C0E6FF3C
:1048300015C0E6FF16C0E6FF17C0E6FF080EE66EDD
:10484000010EE66E18EC2CF0186E060EE15E1850A4
:104850000101B25129E0B26B0001F53504E2F451D7
:104860000008000EF5550FE3CAEC2AF0B70EE66E0D
:104870005E0EE66E040EE66EE66A3FEC2DF0E55243
:10488000E552E552E5520001800EF5150AE0CAEC4A
:104890002AF00001BB6BBC6B010ED56FBD6BBE6B0C
:1048A000D36FF407000EF55BF6EC11F0000901E19F
:1048B00039D1CAEC2AF00001BB6BBC6B010ED56F7D
:1048C000BD6BBE6B09D1CAEC2AF06A0EE66E620EB1
:1048D000E66EE66A010EE66E3FEC2DF0E552E5521B
:1048E000E552E552C60EE66E5D0EE66E020EE66E0F
:1048F000E66A3FEC2DF0E552E552E552E552BE0E78
:10490000E66E5D0EE66E020EE66E010EE66E3FECA2
:104910002DF0E552E552E552E552EEEC11F00009BA
:104920000AE04F0E0001BD6FBE6BCAEC2AF0000119
:104930009C6B010E91D0F6EC11F0000901E0C3D0A0
:104940001EEC12F000094CE135EC12F0000901E117
:10495000E9D08DD0CAEC2AF06A0EE66E620EE66EE1
:10496000E66AE66A3FEC2DF0E552E552E552E55283
:10497000B60EE66E5D0EE66E020EE66EE66A3FEC81
:104980002DF0E552E552E552E552AE0EE66E5D0EB3
:10499000E66E020EE66E010EE66E3FEC2DF0E5527D
:1049A000E552E552E552EEEC11F0000909E04F0E38
:1049B0000001BD6FBE6B9C6BCAEC2AF0020E4BD09F
:1049C000F6EC11F0000901E07ED01EEC12F00009B7
:1049D00002E0520E53D035EC12F0000901E1A2D0F2
:1049E000540E4CD0CAEC2AF00001010ED56F6A0EAD
:1049F000E66E620EE66EE66A010EE66E3FEC2DF0A4
:104A0000E552E552E552E552B60EE66E5D0EE66EF3
:104A1000020EE66EE66A3FEC2DF0E552E552E552F5
:104A2000E552AE0EE66E5D0EE66E020EE66E010E0D
:104A3000E66E3FEC2DF0E552E552E552E552EEEC24
:104A400011F000090CE04F0E0001BD6FBE6B9C6BB6
:104A5000CAEC2AF0030E0001BF6FC06B1200F6EC27
:104A600011F0000930E11EEC12F0000902E0530ED3
:104A700005D035EC12F0000955E0520E0001BD6F73
:104A8000BE6B12009E0EE66E5D0EE66EE66AE66A8C
:104A90003FEC2DF0E552E552E552E552040E0001DF
:104AA0009C5D1CE369D800093DE0BFC014F0C0C0A4
:104AB00015F01406000E155A14C0E6FF15C0E6FFE7
:104AC000AED8E552E552CAEC2AF00001BB6BBC6BD4
:104AD000BD6BBE6B010ED56FD36F120024D80009D9
:104AE00021E089C114F0156A166A176A89C1E6FFC8
:104AF00015C0E6FF16C0E6FF17C0E6FF9CC0E6FF44
:104B0000010EE66E18EC2CF0186E060EE15E1850E1
:104B100000019C51EA6A8A0FE96E010EEA2289C1FE
:104B2000EFFF9C2B1200D9CFE6FFE1CFD9FFE65271
:104B3000DF6ADF500F081AE3EA6ADF34FE0BEA3659
:104B4000E96E610EE926010EEA22010EEE180CE173
:104B5000ED500AE1DF50EA6A8C0FE96E000EEA229E
:104B6000EFCF89F1010E03D0DF2AE3D7000EE55223
:104B7000E552E7CFD9FF12000101010E691903E1E7
:104B80006A5101E1010C000CD9CFE6FFE1CFD9FF5A
:104B9000020EE126DE6ADD6ADECF14F0DDCF15F00D
:104BA000D890155004E6040E145C000E15582AE245
:104BB000DECFE9FFDDCFEAFF8A0EE926010EEA2209
:104BC000EFCF14F0FD0EDBCF15F0FE0EDBCF16F0AD
:104BD000D89015361636D89015361636800E15260E
:104BE000000E1622DE501524E96EDD501620EA6E06
:104BF000EF50145C02E0000E06D0DF2A010ECCE379
:104C0000DB2ACAD7010E146E020EE15C02E2E16AF1
:104C1000E552E16E1450E552E7CFD9FF1200D9CF2B
:104C2000E6FFE1CFD9FF020EE126DE6ADD6ADECFC4
:104C300014F0DDCF15F0D890155004E6040E145C86
:104C4000000E155828E2DECFE9FFDDCFEAFF8A0E1D
:104C5000E926010EEA22EF50E66EFD0EDBCF14F0DE
:104C6000FE0EDBCF15F0D89014361536D8901436DA
:104C70001536800E1426000E1522DE501424E96E1F
:104C8000DD501520EA6EE552E750EF6EDF2A010E87
:104C9000CEE3DB2ACCD7020EE15C02E2E16AE55208
:0A4CA000E16EE552E7CFD9FF1200E4
:064CAA00D9CFE6FFE1CFC7
:104CB000D9FF040EE126DE6ADD6ADECF14F0DDCF17
:104CC00015F0166A176A15AE02D016681768D95023
:104CD000FB0FE96EFF0EDA20EA6EEE50145CEE5028
:104CE0001558EE501658EE5017581DE2020EDB6AAA
:104CF000030EDB6A020EDBCF14F0030EDBCF15F0E0
:104D0000D890155004E6050E145C000E155806E206
:104D1000020EDB2A030EEEE3DB2AECD7DF2A010EBC
:104D2000CCE3DB2ACAD7040EE15C02E2E16AE55279
:104D3000E16EE552E7CFD9FF1200D9CFE6FFE1CF10
:104D4000D9FF040EE126DE6ADD6ADECF14F0DDCF86
:104D500015F0166A176A15AE02D016681768D95092
:104D6000FB0FE96EFF0EDA20EA6EEE50145CEE5097
:104D70001558EE501658EE5017581DE2020EDB6A19
:104D8000030EDB6A020EDBCF14F0030EDBCF15F04F
:104D9000D890155004E6EE0E145C000E155806E28D
:104DA000020EDB2A030EEEE3DB2AECD7DF2A010E2C
:104DB000CCE3DB2ACAD7040EE15C02E2E16AE552E9
:104DC000E16EE552E7CFD9FF1200D9CFE6FFE1CF80
:104DD000D9FF0F0E8116FE0EDB50F00B811281867B
:104DE000010EE66EE66AE66AE66AA7DFE552E5527C
:104DF000E552E5528196010EE66EE66AE66AE66ADB
:104E00009CDFE552E552E552E5520F0E8116FE0E8B
:104E1000DB38F00B81128186010EE66EE66AE66AE7
:104E2000E66A8BDFE552E552E552E5528196010EC6
:104E3000E66EE66AE66AE66A80DFE552E552E5522A
:104E4000E552E552E7CFD9FF1200D9CFE6FFE1CF17
:104E5000D9FFE652190EE66EE66AE66AE66A6DDF8B
:104E6000E552E552E552E5520F0E8116F80E811615
:104E70000F0E8116300E81128186010EE66EE66AF3
:104E8000E66AE66A5ADFE552E552E552E552819656
:104E9000010EE66EE66AE66AE66A4FDFE552E55223
:104EA000E552E5520F0E8116300E81128186010EF9
:104EB000E66EE66AE66AE66A40DFE552E552E552EA
:104EC000E5528196010EE66EE66AE66AE66A35DF2D
:104ED000E552E552E552E5520F0E8116300E811271
:104EE0008186010EE66EE66AE66AE66A26DFE5522C
:104EF000E552E552E5528196010EE66EE66AE66AF3
:104F0000E66A1BDFE552E552E552E5520F0E8116C7
:104F1000818A8186010EE66EE66AE66AE66A0DDF40
:104F2000E552E552E552E5528196010EE66EE66ADB
:104F3000E66AE66A02DFE552E552E552E552280EDE
:104F4000E66E43DFE5520C0EE66E3FDFE552E552BA
:104F5000E552E7CFD9FF1200D9CFE6FFE1CFD9FF65
:104F6000020EE126DF6A010EDB6A81940F0EE66E07
:104F7000E66AE66AE66A99DEE552E552E552E552EE
:104F80000F0E81128186E66EE66AE66AE66A8DDEBB
:104F9000E552E552E552E5520F0E8114E76E010E1F
:104FA000E7CFDBFF81960F0EE66EE66AE66AE66AF9
:104FB0007CDEE552E552E552E5520F0E8112818604
:104FC000E66EE66AE66AE66A70DEE552E552E552AA
:104FD000E5520F0E8114DF6E010EDB50DF12819659
:104FE000010EE66EE66AE66AE66A5FDEE552E552C3
:104FF000E552E552DF50146E020EE15C02E2E16A16
:10500000E552E16E1450E552E7CFD9FF1200D9CF37
:10501000E6FFE1CFD9FFE652DF6A9EDFDF6EDFBE3B
:10502000FCD7DF50E552E552E7CFD9FF1200D9CFC8
:10503000E6FFE1CFD9FF0F0E8116FE0EDB50811285
:105040008186050EE66EE66AE66AE66A2EDEE552BF
:10505000E552E552E5528196050EE66EE66AE66A8D
:10506000E66A23DEE552E552E552E552E552E7CF26
:10507000D9FF1200D9CFE6FFE1CFD9FF8194050E09
:10508000E66EE66AE66AE66A10DEE552E552E55249
:10509000E552FE0EDBCFE6FFCADFE552FE0EDB383F
:1050A000F00BE66EC4DFE552E552E7CFD9FF120000
:1050B000D9CFE6FFE1CFD9FF8184050EE66EE66A1F
:1050C000E66AE66AF2DDE552E552E552E552FE0E89
:1050D000DBCFE6FFACDFE552FE0EDB38F00BE66E11
:1050E000A6DFE5528194E552E7CFD9FF1200D9CF70
:1050F000E6FFE1CFD9FFFE0EDBCFE6FFD9DFE552B9
:10510000E552E7CFD9FF1200D9CFE6FFE1CFD9FFB3
:10511000FE0EDBCFE6FFCCDFE552E552E7CFD9FF4D
:105120001200D9CFE6FFE1CFD9FFFD0EDBCFF6FFAE
:10513000FE0EDBCFF7FF0800F5500FE0FD0EDBCFD2
:10514000F6FFDB2AFE0EDBCFF7FF01E3DB2A0800C8
:10515000F550E66ED9DFE552E8D7E552E7CFD9FF43
:105160001200D9CFE6FFE1CFD9FFE652FD0EDB50AA
:105170000F0B146EFE0EDB50010B400DF350142488
:10518000DF6E7F0EDF14800FDF6EDFCFE6FF72DF92
:10519000E552E552E552E7CFD9FF1200010EE66E67
:1051A00069DFE552E66AE66ADCDFE552E5521200A5
:1051B000D9CFE6FFE1CFD9FF050EE126010EF36E50
:1051C000DB6E020EDB6A030EDB6A040EDB6ADF6A4B
:1051D000DFCF14F0156A14BE1568FB0EDBCF16F096
:1051E000FC0EDBCF17F015501718E8AE02D01734BD
:1051F00004D01650145C175015582DE2FD0EDBCF6D
:1052000014F0FE0EDBCF15F0166A176A15AE02D049
:1052100016681768D950010FE96EDACFEAFF14C09B
:105220000BF015C00CF016C00DF017C00EF0EECF4D
:1052300006F0EECF07F0EECF08F0EFCF09F04FEC1D
:105240003EF005C0EDFF04C0EDFF03C0EDFF02C05E
:10525000EFFFDF2ABDD7010EDBCF14F0020EDBCF4C
:1052600015F0030EDBCF16F0040EDBCF17F014C0E1
:1052700006F015C007F016C008F017C009F0050EBB
:10528000E15C02E2E16AE552E16EE552E7CFD9FF67
:105290001200D9CFE6FFE1CFD9FF020EE126DF6A87
:1052A000FB0EDBCF14F0FC0EDBCF15F0FD0EDBCFD9
:1052B00016F0FE0EDBCF17F0145015101610171055
:1052C00005E1300EE66E20DFE552F9D0D950FB0F34
:1052D000E96EFF0EDA20EA6ED890030EEB50000A5A
:1052E00008E6000EEE5C000EEE58000EEE58000EC2
:1052F000EE5816E22D0EE66E07DFE552D950FB0F91
:10530000E96EFF0EDA20EA6E000EEE6CEF1EEE2262
:10531000EF1EEE22EF1EEF22ED52ED52ED5204D0C1
:10532000580EE66EF1DEE552DE52070EDD6E010E1E
:10533000DBCF14F0000EE76E1418E8AE02D0143480
:1053400003D0E750D880145401E3B9D0010EDB0438
:10535000186E196A18BE196818C0E6FF19C0E6FF72
:105360000A0EE66EE66A24DFE552E552E552E552A2
:1053700006C014F007C015F008C016F009C017F0F9
:1053800006C00BF007C00CF008C00DF009C00EF00D
:10539000FB0EDBCF06F0FC0EDBCF07F0FD0EDBCF04
:1053A00008F0FE0EDBCF09F087EC3EF00650071048
:1053B0000810091041E0010EDF6EDB041C6E1D6A4F
:1053C0001CBE1D681CC0E6FF1DC0E6FF0A0EE66E8F
:1053D000E66AEEDEE552E552E552E55206C018F007
:1053E00007C019F008C01AF009C01BF006C00BF086
:1053F00007C00CF008C00DF009C00EF0FB0EDBCFAB
:1054000006F0FC0EDBCF07F0FD0EDBCF08F0FE0E42
:10541000DBCF09F087EC3EF006C014F007C015F0B2
:1054200008C016F009C017F0300E1426000E152221
:1054300016221722145003D0DF5004E0300EE66E1F
:1054400063DEE552010EDB04186E196A18BE196896
:1054500018C0E6FF19C0E6FF0A0EE66EE66AA8DE8F
:10546000E552E552E552E55206C014F007C015F0CA
:1054700008C016F009C017F0D950FB0FE96EFF0EF7
:10548000DA20EA6E06C00BF007C00CF008C00DF081
:1054900009C00EF0EECF06F0EECF07F0EECF08F029
:1054A000EFCF09F087EC3EF005C0EDFF04C0EDFF43
:1054B00003C0EDFF02C0EFFF010EDB0638D7020E7E
:1054C000E15C02E2E16AE552E16EE552E7CFD9FF25
:1054D0001200D9CFE6FFE1CFD9FFFD0EDBCFE6FF0B
:1054E000FE0EDBCFE6FF3DDEE552E552D950F90F67
:1054F000E96EFF0EDA20EA6EEECFE6FFEECFE6FFB2
:10550000EECFE6FFEFCFE6FFC4DEE552E552E5520F
:10551000E552E552E7CFD9FF1200D9CFE6FFE1CF40
:10552000D9FFFD0EDBCFE6FFFE0EDBCFE6FF19DE77
:10553000E552E552FB0EDBCFE6FFFC0EDBCFE6FFCC
:10554000F0DDE552E552E552E7CFD9FF1200D9CFA1
:10555000E6FFE1CFD9FFFAC014F0FBC015F0040E4E
:10556000D89014361536E806FBE1410E1426010EDC
:10557000152214500001FC25E96E1550FD21EA6E3C
:10558000FE0EDBCFEFFFFC2B000EFD23E552E7CF35
:10559000D9FF1200D9CFE6FFE1CFD9FFE652DF6A8B
:1055A000DFCF14F0100EE76E1418E8AE02D0E73427
:1055B00002D0E750145C18E2DFCFE9FFEA6AE9BEE7
:1055C000EA68410EE926010EEA22200EEF6EDFCFD7
:1055D000E9FFEA6AE9BEEA68510EE926010EEA220D
:1055E000200EEF6EDF2ADCD7E552E552E7CFD9FF78
:1055F0001200D9CFE6FFE1CFD9FFE65201014051B9
:10560000030A52E0010A36E0030A1AE0010A67E1E0
:10561000E66AE66AA6DDE552E552DF6A080EDF5C5F
:105620000CE2DF50EA6A410FE96E010EEA22EF5008
:10563000E66E6ADDE552DF2AF1D70101010E32D0B4
:10564000080EE66EE66A8DDDE552E552DF6A080E69
:10565000DF5C0DE2080EDF24EA6A410FE96E010EFD
:10566000EA22EF50E66E50DDE552DF2AF0D7010165
:10567000020E18D0E66A010EE66E73DDE552E552C1
:10568000DF6A080EDF5C0CE2DF50EA6A510FE96E58
:10569000010EEA22EF50E66E37DDE552DF2AF1D740
:1056A0000101030E406F1CD0080EE66E010EE66E7F
:1056B00058DDE552E552DF6A080EDF5C0DE2080EA8
:1056C000DF24EA6A510FE96E010EEA22EF50E66E1E
:1056D0001BDDE552DF2AF0D70101406B01D0406BA2
:1056E000E552E552E7CFD9FF1200D9CFE6FFE1CF6F
:1056F000D9FFE65201014051010A1BE0010A32E1E3
:10570000E66AE66A2EDDE552E552DF6A100EDF5CDE
:105710000CE2DF50EA6A410FE96E010EEA22EF5017
:10572000E66EF2DCE552DF2AF1D70101010E406F8F
:105730001AD0E66A010EE66E14DDE552E552DF6A24
:10574000100EDF5C0CE2DF50EA6A510FE96E010EC9
:10575000EA22EF50E66ED8DCE552DF2AF1D70101EC
:10576000406B01D0406BE552E552E7CFD9FF120004
:10577000D9CFE6FFE1CFD9FFE652E66AE66AF1DC6F
:10578000E552E552DF6A100EDF5C0CE2DF50EA6A98
:10579000410FE96E010EEA22EF50E66EB5DCE552EC
:1057A000DF2AF1D7E66A010EE66EDBDCE552E55250
:1057B000DF6A100EDF5C0CE2DF50EA6A510FE96E1F
:1057C000010EEA22EF50E66E9FDCE552DF2AF1D7A8
:1057D000E552E552E7CFD9FF1200D9CFE6FFE1CF7E
:1057E000D9FFFE0EDB50010B0001FA6FFB6BFD0EC3
:1057F000DB500F0BFC6FFD6BFAC014F0FBC015F013
:10580000040ED89014361536E806FBE1410E142636
:10581000010E152214500001FC25E96E1550FD21E2
:10582000EA6EFC0EDBCFEFFFE552E7CFD9FF1200A7
:10583000D9CFE6FFE1CFD9FF020EE126DF6AFE0EE7
:10584000DB50010B0001FA6FFB6BFD0EDB500F0B01
:10585000FC6FFD6BF90EDBCF14F0FA0EDBCF15F009
:10586000FB0EDBCF16F0FC0EDBCF17F0145015103B
:105870001610171005E1300EE66E69DEE552F5D020
:10588000D950F90FE96EFF0EDA20EA6ED890030EB8
:10589000EB50000A08E6000EEE5C000EEE58000E1B
:1058A000EE58000EEE5815E22D0EE66E50DEE55273
:1058B000D950F90FE96EFF0EDA20EA6E000EEE6C99
:1058C000EF1EEE22EF1EEE22EF1EEF22ED52ED5202
:1058D000ED52DE52070EDD6E010EDBCF14F0000E2E
:1058E000E76E1418E8AE02D0143403D0E750D88025
:1058F000145401E3BAD0010EDB04186E196A18BE05
:10590000196818C0E6FF19C0E6FF0A0EE66EE66ADF
:105910004FDCE552E552E552E55206C014F007C0EF
:1059200015F008C016F009C017F006C00BF007C04C
:105930000CF008C00DF009C00EF0F90EDBCF06F038
:10594000FA0EDBCF07F0FB0EDBCF08F0FC0EDBCF4F
:1059500009F087EC3EF0065007100810091041E0EE
:10596000010EDF6EDB041C6E1D6A1CBE1D681CC0B0
:10597000E6FF1DC0E6FF0A0EE66EE66A19DCE55298
:10598000E552E552E55206C018F007C019F008C00C
:105990001AF009C01BF006C00BF007C00CF008C0DD
:1059A0000DF009C00EF0F90EDBCF06F0FA0EDBCFDA
:1059B00007F0FB0EDBCF08F0FC0EDBCF09F087EC25
:1059C0003EF006C014F007C015F008C016F009C07C
:1059D00017F0300E1426000E15221622172214502E
:1059E00003D0DF5004E0300EE66EB1DDE552010E6B
:1059F000DB04186E196A18BE196818C0E6FF19C0D2
:105A0000E6FF0A0EE66EE66AD8EC28F0E552E552AB
:105A1000E552E55206C014F007C015F008C016F0B4
:105A200009C017F0D950F90FE96EFF0EDA20EA6EBF
:105A300006C00BF007C00CF008C00DF009C00EF056
:105A4000EECF06F0EECF07F0EECF08F0EFCF09F083
:105A500087EC3EF005C0EDFF04C0EDFF03C0EDFF95
:105A600002C0EFFF010EDB0637D7020EE15C02E257
:105A7000E16AE552E16EE552E7CFD9FF1200D9CFD6
:105A8000E6FFE1CFD9FFFE0EDB50010B0001FA6FFC
:105A9000FB6BFD0EDB500F0BFC6FFD6BFB0EDBCFCA
:105AA000F6FFFC0EDBCFF7FF0800F5500FE0FB0E12
:105AB000DBCFF6FFDB2AFC0EDBCFF7FF01E3DB2AAF
